{
  "_format": "hh-sol-artifact-1",
  "contractName": "DD2ETHSwap",
  "sourceName": "contracts/DD2ETHSwap.sol",
  "abi": [
    {
      "inputs": [],
      "stateMutability": "nonpayable",
      "type": "constructor"
    },
    {
      "inputs": [
        {
          "internalType": "address",
          "name": "spender",
          "type": "address"
        },
        {
          "internalType": "uint256",
          "name": "allowance",
          "type": "uint256"
        },
        {
          "internalType": "uint256",
          "name": "needed",
          "type": "uint256"
        }
      ],
      "name": "ERC20InsufficientAllowance",
      "type": "error"
    },
    {
      "inputs": [
        {
          "internalType": "address",
          "name": "sender",
          "type": "address"
        },
        {
          "internalType": "uint256",
          "name": "balance",
          "type": "uint256"
        },
        {
          "internalType": "uint256",
          "name": "needed",
          "type": "uint256"
        }
      ],
      "name": "ERC20InsufficientBalance",
      "type": "error"
    },
    {
      "inputs": [
        {
          "internalType": "address",
          "name": "approver",
          "type": "address"
        }
      ],
      "name": "ERC20InvalidApprover",
      "type": "error"
    },
    {
      "inputs": [
        {
          "internalType": "address",
          "name": "receiver",
          "type": "address"
        }
      ],
      "name": "ERC20InvalidReceiver",
      "type": "error"
    },
    {
      "inputs": [
        {
          "internalType": "address",
          "name": "sender",
          "type": "address"
        }
      ],
      "name": "ERC20InvalidSender",
      "type": "error"
    },
    {
      "inputs": [
        {
          "internalType": "address",
          "name": "spender",
          "type": "address"
        }
      ],
      "name": "ERC20InvalidSpender",
      "type": "error"
    },
    {
      "inputs": [
        {
          "internalType": "address",
          "name": "owner",
          "type": "address"
        }
      ],
      "name": "OwnableInvalidOwner",
      "type": "error"
    },
    {
      "inputs": [
        {
          "internalType": "address",
          "name": "account",
          "type": "address"
        }
      ],
      "name": "OwnableUnauthorizedAccount",
      "type": "error"
    },
    {
      "inputs": [],
      "name": "ReentrancyGuardReentrantCall",
      "type": "error"
    },
    {
      "anonymous": false,
      "inputs": [
        {
          "indexed": true,
          "internalType": "address",
          "name": "owner",
          "type": "address"
        },
        {
          "indexed": true,
          "internalType": "address",
          "name": "spender",
          "type": "address"
        },
        {
          "indexed": false,
          "internalType": "uint256",
          "name": "value",
          "type": "uint256"
        }
      ],
      "name": "Approval",
      "type": "event"
    },
    {
      "anonymous": false,
      "inputs": [
        {
          "indexed": true,
          "internalType": "address",
          "name": "user",
          "type": "address"
        },
        {
          "indexed": false,
          "internalType": "uint256",
          "name": "ddAmount",
          "type": "uint256"
        },
        {
          "indexed": false,
          "internalType": "uint256",
          "name": "ethAmount",
          "type": "uint256"
        }
      ],
      "name": "DdToEthSwapped",
      "type": "event"
    },
    {
      "anonymous": false,
      "inputs": [
        {
          "indexed": true,
          "internalType": "address",
          "name": "user",
          "type": "address"
        },
        {
          "indexed": false,
          "internalType": "uint256",
          "name": "ethAmount",
          "type": "uint256"
        },
        {
          "indexed": false,
          "internalType": "uint256",
          "name": "ddAmount",
          "type": "uint256"
        }
      ],
      "name": "EthToDdSwapped",
      "type": "event"
    },
    {
      "anonymous": false,
      "inputs": [
        {
          "indexed": true,
          "internalType": "address",
          "name": "previousOwner",
          "type": "address"
        },
        {
          "indexed": true,
          "internalType": "address",
          "name": "newOwner",
          "type": "address"
        }
      ],
      "name": "OwnershipTransferred",
      "type": "event"
    },
    {
      "anonymous": false,
      "inputs": [
        {
          "indexed": true,
          "internalType": "address",
          "name": "from",
          "type": "address"
        },
        {
          "indexed": true,
          "internalType": "address",
          "name": "to",
          "type": "address"
        },
        {
          "indexed": false,
          "internalType": "uint256",
          "name": "value",
          "type": "uint256"
        }
      ],
      "name": "Transfer",
      "type": "event"
    },
    {
      "inputs": [],
      "name": "EXCHANGE_RATE",
      "outputs": [
        {
          "internalType": "uint256",
          "name": "",
          "type": "uint256"
        }
      ],
      "stateMutability": "view",
      "type": "function"
    },
    {
      "inputs": [
        {
          "internalType": "address",
          "name": "owner",
          "type": "address"
        },
        {
          "internalType": "address",
          "name": "spender",
          "type": "address"
        }
      ],
      "name": "allowance",
      "outputs": [
        {
          "internalType": "uint256",
          "name": "",
          "type": "uint256"
        }
      ],
      "stateMutability": "view",
      "type": "function"
    },
    {
      "inputs": [
        {
          "internalType": "address",
          "name": "spender",
          "type": "address"
        },
        {
          "internalType": "uint256",
          "name": "value",
          "type": "uint256"
        }
      ],
      "name": "approve",
      "outputs": [
        {
          "internalType": "bool",
          "name": "",
          "type": "bool"
        }
      ],
      "stateMutability": "nonpayable",
      "type": "function"
    },
    {
      "inputs": [
        {
          "internalType": "address",
          "name": "account",
          "type": "address"
        }
      ],
      "name": "balanceOf",
      "outputs": [
        {
          "internalType": "uint256",
          "name": "",
          "type": "uint256"
        }
      ],
      "stateMutability": "view",
      "type": "function"
    },
    {
      "inputs": [],
      "name": "decimals",
      "outputs": [
        {
          "internalType": "uint8",
          "name": "",
          "type": "uint8"
        }
      ],
      "stateMutability": "view",
      "type": "function"
    },
    {
      "inputs": [
        {
          "internalType": "uint256",
          "name": "amount",
          "type": "uint256"
        }
      ],
      "name": "depositDdTokens",
      "outputs": [],
      "stateMutability": "nonpayable",
      "type": "function"
    },
    {
      "inputs": [],
      "name": "getDdBalance",
      "outputs": [
        {
          "internalType": "uint256",
          "name": "",
          "type": "uint256"
        }
      ],
      "stateMutability": "view",
      "type": "function"
    },
    {
      "inputs": [],
      "name": "getEthBalance",
      "outputs": [
        {
          "internalType": "uint256",
          "name": "",
          "type": "uint256"
        }
      ],
      "stateMutability": "view",
      "type": "function"
    },
    {
      "inputs": [],
      "name": "name",
      "outputs": [
        {
          "internalType": "string",
          "name": "",
          "type": "string"
        }
      ],
      "stateMutability": "view",
      "type": "function"
    },
    {
      "inputs": [],
      "name": "owner",
      "outputs": [
        {
          "internalType": "address",
          "name": "",
          "type": "address"
        }
      ],
      "stateMutability": "view",
      "type": "function"
    },
    {
      "inputs": [],
      "name": "renounceOwnership",
      "outputs": [],
      "stateMutability": "nonpayable",
      "type": "function"
    },
    {
      "inputs": [
        {
          "internalType": "uint256",
          "name": "ddAmount",
          "type": "uint256"
        }
      ],
      "name": "swapDdToEth",
      "outputs": [],
      "stateMutability": "nonpayable",
      "type": "function"
    },
    {
      "inputs": [],
      "name": "swapEthToDd",
      "outputs": [],
      "stateMutability": "payable",
      "type": "function"
    },
    {
      "inputs": [],
      "name": "symbol",
      "outputs": [
        {
          "internalType": "string",
          "name": "",
          "type": "string"
        }
      ],
      "stateMutability": "view",
      "type": "function"
    },
    {
      "inputs": [],
      "name": "totalSupply",
      "outputs": [
        {
          "internalType": "uint256",
          "name": "",
          "type": "uint256"
        }
      ],
      "stateMutability": "view",
      "type": "function"
    },
    {
      "inputs": [
        {
          "internalType": "address",
          "name": "to",
          "type": "address"
        },
        {
          "internalType": "uint256",
          "name": "value",
          "type": "uint256"
        }
      ],
      "name": "transfer",
      "outputs": [
        {
          "internalType": "bool",
          "name": "",
          "type": "bool"
        }
      ],
      "stateMutability": "nonpayable",
      "type": "function"
    },
    {
      "inputs": [
        {
          "internalType": "address",
          "name": "from",
          "type": "address"
        },
        {
          "internalType": "address",
          "name": "to",
          "type": "address"
        },
        {
          "internalType": "uint256",
          "name": "value",
          "type": "uint256"
        }
      ],
      "name": "transferFrom",
      "outputs": [
        {
          "internalType": "bool",
          "name": "",
          "type": "bool"
        }
      ],
      "stateMutability": "nonpayable",
      "type": "function"
    },
    {
      "inputs": [
        {
          "internalType": "address",
          "name": "newOwner",
          "type": "address"
        }
      ],
      "name": "transferOwnership",
      "outputs": [],
      "stateMutability": "nonpayable",
      "type": "function"
    },
    {
      "inputs": [
        {
          "internalType": "uint256",
          "name": "amount",
          "type": "uint256"
        }
      ],
      "name": "withdrawDdTokens",
      "outputs": [],
      "stateMutability": "nonpayable",
      "type": "function"
    },
    {
      "inputs": [
        {
          "internalType": "uint256",
          "name": "amount",
          "type": "uint256"
        }
      ],
      "name": "withdrawEth",
      "outputs": [],
      "stateMutability": "nonpayable",
      "type": "function"
    },
    {
      "stateMutability": "payable",
      "type": "receive"
    }
  ],
  "bytecode": "0x608060405234801561001057600080fd5b50336040518060400160405280600881526020017f444420546f6b656e0000000000000000000000000000000000000000000000008152506040518060400160405280600281526020017f4444000000000000000000000000000000000000000000000000000000000000815250816003908161008d9190610445565b50806004908161009d9190610445565b505050600073ffffffffffffffffffffffffffffffffffffffff168173ffffffffffffffffffffffffffffffffffffffff16036101125760006040517f1e4fbdf70000000000000000000000000000000000000000000000000000000081526004016101099190610558565b60405180910390fd5b6101218161012f60201b60201c565b506001600681905550610573565b6000600560009054906101000a900473ffffffffffffffffffffffffffffffffffffffff16905081600560006101000a81548173ffffffffffffffffffffffffffffffffffffffff021916908373ffffffffffffffffffffffffffffffffffffffff1602179055508173ffffffffffffffffffffffffffffffffffffffff168173ffffffffffffffffffffffffffffffffffffffff167f8be0079c531659141344cd1fd0a4f28419497f9722a3daafe3b4186f6b6457e060405160405180910390a35050565b600081519050919050565b7f4e487b7100000000000000000000000000000000000000000000000000000000600052604160045260246000fd5b7f4e487b7100000000000000000000000000000000000000000000000000000000600052602260045260246000fd5b6000600282049050600182168061027657607f821691505b6020821081036102895761028861022f565b5b50919050565b60008190508160005260206000209050919050565b60006020601f8301049050919050565b600082821b905092915050565b6000600883026102f17fffffffffffffffffffffffffffffffffffffffffffffffffffffffffffffffff826102b4565b6102fb86836102b4565b95508019841693508086168417925050509392505050565b6000819050919050565b6000819050919050565b600061034261033d61033884610313565b61031d565b610313565b9050919050565b6000819050919050565b61035c83610327565b61037061036882610349565b8484546102c1565b825550505050565b600090565b610385610378565b610390818484610353565b505050565b5b818110156103b4576103a960008261037d565b600181019050610396565b5050565b601f8211156103f9576103ca8161028f565b6103d3846102a4565b810160208510156103e2578190505b6103f66103ee856102a4565b830182610395565b50505b505050565b600082821c905092915050565b600061041c600019846008026103fe565b1980831691505092915050565b6000610435838361040b565b9150826002028217905092915050565b61044e826101f5565b67ffffffffffffffff81111561046757610466610200565b5b610471825461025e565b61047c8282856103b8565b600060209050601f8311600181146104af576000841561049d578287015190505b6104a78582610429565b86555061050f565b601f1984166104bd8661028f565b60005b828110156104e5578489015182556001820191506020850194506020810190506104c0565b8683101561050257848901516104fe601f89168261040b565b8355505b6001600288020188555050505b505050505050565b600073ffffffffffffffffffffffffffffffffffffffff82169050919050565b600061054282610517565b9050919050565b61055281610537565b82525050565b600060208201905061056d6000830184610549565b92915050565b611c56806105826000396000f3fe6080604052600436106101235760003560e01c80638da5cb5b116100a0578063d44cc17411610064578063d44cc174146103e2578063d50a2d0f146103ec578063dd62ed3e14610415578063f2fde38b14610452578063fd938ab11461047b5761012a565b80638da5cb5b146102fd57806395d89b4114610328578063a9059cbb14610353578063c311d04914610390578063c80a5c65146103b95761012a565b8063313ce567116100e7578063313ce5671461022a57806334f5de9e1461025557806370a082311461027e57806370ed0ada146102bb578063715018a6146102e65761012a565b806306fdde031461012f578063095ea7b31461015a57806314a8bd0d1461019757806318160ddd146101c257806323b872dd146101ed5761012a565b3661012a57005b600080fd5b34801561013b57600080fd5b506101446104a6565b60405161015191906113e6565b60405180910390f35b34801561016657600080fd5b50610181600480360381019061017c91906114a1565b610538565b60405161018e91906114fc565b60405180910390f35b3480156101a357600080fd5b506101ac61055b565b6040516101b99190611526565b60405180910390f35b3480156101ce57600080fd5b506101d7610561565b6040516101e49190611526565b60405180910390f35b3480156101f957600080fd5b50610214600480360381019061020f9190611541565b61056b565b60405161022191906114fc565b60405180910390f35b34801561023657600080fd5b5061023f61059a565b60405161024c91906115b0565b60405180910390f35b34801561026157600080fd5b5061027c600480360381019061027791906115cb565b6105a3565b005b34801561028a57600080fd5b506102a560048036038101906102a091906115f8565b610757565b6040516102b29190611526565b60405180910390f35b3480156102c757600080fd5b506102d061079f565b6040516102dd9190611526565b60405180910390f35b3480156102f257600080fd5b506102fb6107a7565b005b34801561030957600080fd5b506103126107bb565b60405161031f9190611634565b60405180910390f35b34801561033457600080fd5b5061033d6107e5565b60405161034a91906113e6565b60405180910390f35b34801561035f57600080fd5b5061037a600480360381019061037591906114a1565b610877565b60405161038791906114fc565b60405180910390f35b34801561039c57600080fd5b506103b760048036038101906103b291906115cb565b61089a565b005b3480156103c557600080fd5b506103e060048036038101906103db91906115cb565b610936565b005b6103ea61099e565b005b3480156103f857600080fd5b50610413600480360381019061040e91906115cb565b610aac565b005b34801561042157600080fd5b5061043c6004803603810190610437919061164f565b610afd565b6040516104499190611526565b60405180910390f35b34801561045e57600080fd5b50610479600480360381019061047491906115f8565b610b84565b005b34801561048757600080fd5b50610490610c0a565b60405161049d9190611526565b60405180910390f35b6060600380546104b5906116be565b80601f01602080910402602001604051908101604052809291908181526020018280546104e1906116be565b801561052e5780601f106105035761010080835404028352916020019161052e565b820191906000526020600020905b81548152906001019060200180831161051157829003601f168201915b5050505050905090565b600080610543610c1a565b9050610550818585610c22565b600191505092915050565b6103e881565b6000600254905090565b600080610576610c1a565b9050610583858285610c34565b61058e858585610cc9565b60019150509392505050565b60006012905090565b6105ab610dbd565b600081116105ee576040517f08c379a00000000000000000000000000000000000000000000000000000000081526004016105e59061173b565b60405180910390fd5b60006103e8826105fe91906117b9565b905080471015610643576040517f08c379a000000000000000000000000000000000000000000000000000000000815260040161063a90611836565b60405180910390fd5b61064e333084610cc9565b60003373ffffffffffffffffffffffffffffffffffffffff168260405161067490611887565b60006040518083038185875af1925050503d80600081146106b1576040519150601f19603f3d011682016040523d82523d6000602084013e6106b6565b606091505b50509050806106fa576040517f08c379a00000000000000000000000000000000000000000000000000000000081526004016106f1906118e8565b60405180910390fd5b3373ffffffffffffffffffffffffffffffffffffffff167f2e94c032e4d5868dc847ea8bb8e0f1e85deb86f7528f21b085630ab1863389278484604051610742929190611908565b60405180910390a25050610754610e03565b50565b60008060008373ffffffffffffffffffffffffffffffffffffffff1673ffffffffffffffffffffffffffffffffffffffff168152602001908152602001600020549050919050565b600047905090565b6107af610e0d565b6107b96000610e94565b565b6000600560009054906101000a900473ffffffffffffffffffffffffffffffffffffffff16905090565b6060600480546107f4906116be565b80601f0160208091040260200160405190810160405280929190818152602001828054610820906116be565b801561086d5780601f106108425761010080835404028352916020019161086d565b820191906000526020600020905b81548152906001019060200180831161085057829003601f168201915b5050505050905090565b600080610882610c1a565b905061088f818585610cc9565b600191505092915050565b6108a2610e0d565b478111156108e5576040517f08c379a00000000000000000000000000000000000000000000000000000000081526004016108dc9061197d565b60405180910390fd5b6108ed6107bb565b73ffffffffffffffffffffffffffffffffffffffff166108fc829081150290604051600060405180830381858888f19350505050158015610932573d6000803e3d6000fd5b5050565b61093e610e0d565b61094730610757565b811115610989576040517f08c379a0000000000000000000000000000000000000000000000000000000008152600401610980906119e9565b60405180910390fd5b61099b306109956107bb565b83610cc9565b50565b6109a6610dbd565b600034116109e9576040517f08c379a00000000000000000000000000000000000000000000000000000000081526004016109e090611a55565b60405180910390fd5b60006103e8346109f99190611a75565b905080610a0530610757565b1015610a46576040517f08c379a0000000000000000000000000000000000000000000000000000000008152600401610a3d90611b29565b60405180910390fd5b610a51303383610cc9565b3373ffffffffffffffffffffffffffffffffffffffff167f0d8d17345420b4dc358a3fa5baaa09348929418a13aa59fd172965307f817c003483604051610a99929190611908565b60405180910390a250610aaa610e03565b565b60008111610aef576040517f08c379a0000000000000000000000000000000000000000000000000000000008152600401610ae690611b95565b60405180910390fd5b610afa333083610cc9565b50565b6000600160008473ffffffffffffffffffffffffffffffffffffffff1673ffffffffffffffffffffffffffffffffffffffff16815260200190815260200160002060008373ffffffffffffffffffffffffffffffffffffffff1673ffffffffffffffffffffffffffffffffffffffff16815260200190815260200160002054905092915050565b610b8c610e0d565b600073ffffffffffffffffffffffffffffffffffffffff168173ffffffffffffffffffffffffffffffffffffffff1603610bfe5760006040517f1e4fbdf7000000000000000000000000000000000000000000000000000000008152600401610bf59190611634565b60405180910390fd5b610c0781610e94565b50565b6000610c1530610757565b905090565b600033905090565b610c2f8383836001610f5a565b505050565b6000610c408484610afd565b90507fffffffffffffffffffffffffffffffffffffffffffffffffffffffffffffffff811015610cc35781811015610cb3578281836040517ffb8f41b2000000000000000000000000000000000000000000000000000000008152600401610caa93929190611bb5565b60405180910390fd5b610cc284848484036000610f5a565b5b50505050565b600073ffffffffffffffffffffffffffffffffffffffff168373ffffffffffffffffffffffffffffffffffffffff1603610d3b5760006040517f96c6fd1e000000000000000000000000000000000000000000000000000000008152600401610d329190611634565b60405180910390fd5b600073ffffffffffffffffffffffffffffffffffffffff168273ffffffffffffffffffffffffffffffffffffffff1603610dad5760006040517fec442f05000000000000000000000000000000000000000000000000000000008152600401610da49190611634565b60405180910390fd5b610db8838383611131565b505050565b600260065403610df9576040517f3ee5aeb500000000000000000000000000000000000000000000000000000000815260040160405180910390fd5b6002600681905550565b6001600681905550565b610e15610c1a565b73ffffffffffffffffffffffffffffffffffffffff16610e336107bb565b73ffffffffffffffffffffffffffffffffffffffff1614610e9257610e56610c1a565b6040517f118cdaa7000000000000000000000000000000000000000000000000000000008152600401610e899190611634565b60405180910390fd5b565b6000600560009054906101000a900473ffffffffffffffffffffffffffffffffffffffff16905081600560006101000a81548173ffffffffffffffffffffffffffffffffffffffff021916908373ffffffffffffffffffffffffffffffffffffffff1602179055508173ffffffffffffffffffffffffffffffffffffffff168173ffffffffffffffffffffffffffffffffffffffff167f8be0079c531659141344cd1fd0a4f28419497f9722a3daafe3b4186f6b6457e060405160405180910390a35050565b600073ffffffffffffffffffffffffffffffffffffffff168473ffffffffffffffffffffffffffffffffffffffff1603610fcc5760006040517fe602df05000000000000000000000000000000000000000000000000000000008152600401610fc39190611634565b60405180910390fd5b600073ffffffffffffffffffffffffffffffffffffffff168373ffffffffffffffffffffffffffffffffffffffff160361103e5760006040517f94280d620000000000000000000000000000000000000000000000000000000081526004016110359190611634565b60405180910390fd5b81600160008673ffffffffffffffffffffffffffffffffffffffff1673ffffffffffffffffffffffffffffffffffffffff16815260200190815260200160002060008573ffffffffffffffffffffffffffffffffffffffff1673ffffffffffffffffffffffffffffffffffffffff16815260200190815260200160002081905550801561112b578273ffffffffffffffffffffffffffffffffffffffff168473ffffffffffffffffffffffffffffffffffffffff167f8c5be1e5ebec7d5bd14f71427d1e84f3dd0314c0f7b2291e5b200ac8c7c3b925846040516111229190611526565b60405180910390a35b50505050565b600073ffffffffffffffffffffffffffffffffffffffff168373ffffffffffffffffffffffffffffffffffffffff16036111835780600260008282546111779190611bec565b92505081905550611256565b60008060008573ffffffffffffffffffffffffffffffffffffffff1673ffffffffffffffffffffffffffffffffffffffff1681526020019081526020016000205490508181101561120f578381836040517fe450d38c00000000000000000000000000000000000000000000000000000000815260040161120693929190611bb5565b60405180910390fd5b8181036000808673ffffffffffffffffffffffffffffffffffffffff1673ffffffffffffffffffffffffffffffffffffffff16815260200190815260200160002081905550505b600073ffffffffffffffffffffffffffffffffffffffff168273ffffffffffffffffffffffffffffffffffffffff160361129f57806002600082825403925050819055506112ec565b806000808473ffffffffffffffffffffffffffffffffffffffff1673ffffffffffffffffffffffffffffffffffffffff168152602001908152602001600020600082825401925050819055505b8173ffffffffffffffffffffffffffffffffffffffff168373ffffffffffffffffffffffffffffffffffffffff167fddf252ad1be2c89b69c2b068fc378daa952ba7f163c4a11628f55a4df523b3ef836040516113499190611526565b60405180910390a3505050565b600081519050919050565b600082825260208201905092915050565b60005b83811015611390578082015181840152602081019050611375565b60008484015250505050565b6000601f19601f8301169050919050565b60006113b882611356565b6113c28185611361565b93506113d2818560208601611372565b6113db8161139c565b840191505092915050565b6000602082019050818103600083015261140081846113ad565b905092915050565b600080fd5b600073ffffffffffffffffffffffffffffffffffffffff82169050919050565b60006114388261140d565b9050919050565b6114488161142d565b811461145357600080fd5b50565b6000813590506114658161143f565b92915050565b6000819050919050565b61147e8161146b565b811461148957600080fd5b50565b60008135905061149b81611475565b92915050565b600080604083850312156114b8576114b7611408565b5b60006114c685828601611456565b92505060206114d78582860161148c565b9150509250929050565b60008115159050919050565b6114f6816114e1565b82525050565b600060208201905061151160008301846114ed565b92915050565b6115208161146b565b82525050565b600060208201905061153b6000830184611517565b92915050565b60008060006060848603121561155a57611559611408565b5b600061156886828701611456565b935050602061157986828701611456565b925050604061158a8682870161148c565b9150509250925092565b600060ff82169050919050565b6115aa81611594565b82525050565b60006020820190506115c560008301846115a1565b92915050565b6000602082840312156115e1576115e0611408565b5b60006115ef8482850161148c565b91505092915050565b60006020828403121561160e5761160d611408565b5b600061161c84828501611456565b91505092915050565b61162e8161142d565b82525050565b60006020820190506116496000830184611625565b92915050565b6000806040838503121561166657611665611408565b5b600061167485828601611456565b925050602061168585828601611456565b9150509250929050565b7f4e487b7100000000000000000000000000000000000000000000000000000000600052602260045260246000fd5b600060028204905060018216806116d657607f821691505b6020821081036116e9576116e861168f565b5b50919050565b7f444420616d6f756e74206d7573742062652067726561746572207468616e2030600082015250565b6000611725602083611361565b9150611730826116ef565b602082019050919050565b6000602082019050818103600083015261175481611718565b9050919050565b7f4e487b7100000000000000000000000000000000000000000000000000000000600052601260045260246000fd5b7f4e487b7100000000000000000000000000000000000000000000000000000000600052601160045260246000fd5b60006117c48261146b565b91506117cf8361146b565b9250826117df576117de61175b565b5b828204905092915050565b7f496e73756666696369656e742045544820696e20636f6e747261637400000000600082015250565b6000611820601c83611361565b915061182b826117ea565b602082019050919050565b6000602082019050818103600083015261184f81611813565b9050919050565b600081905092915050565b50565b6000611871600083611856565b915061187c82611861565b600082019050919050565b600061189282611864565b9150819050919050565b7f455448207472616e73666572206661696c656400000000000000000000000000600082015250565b60006118d2601383611361565b91506118dd8261189c565b602082019050919050565b60006020820190508181036000830152611901816118c5565b9050919050565b600060408201905061191d6000830185611517565b61192a6020830184611517565b9392505050565b7f496e73756666696369656e742062616c616e6365000000000000000000000000600082015250565b6000611967601483611361565b915061197282611931565b602082019050919050565b600060208201905081810360008301526119968161195a565b9050919050565b7f496e73756666696369656e742044442062616c616e6365000000000000000000600082015250565b60006119d3601783611361565b91506119de8261199d565b602082019050919050565b60006020820190508181036000830152611a02816119c6565b9050919050565b7f4d7573742073656e642045544800000000000000000000000000000000000000600082015250565b6000611a3f600d83611361565b9150611a4a82611a09565b602082019050919050565b60006020820190508181036000830152611a6e81611a32565b9050919050565b6000611a808261146b565b9150611a8b8361146b565b9250828202611a998161146b565b91508282048414831517611ab057611aaf61178a565b5b5092915050565b7f496e73756666696369656e7420444420746f6b656e7320696e20636f6e74726160008201527f6374000000000000000000000000000000000000000000000000000000000000602082015250565b6000611b13602283611361565b9150611b1e82611ab7565b604082019050919050565b60006020820190508181036000830152611b4281611b06565b9050919050565b7f416d6f756e74206d7573742062652067726561746572207468616e2030000000600082015250565b6000611b7f601d83611361565b9150611b8a82611b49565b602082019050919050565b60006020820190508181036000830152611bae81611b72565b9050919050565b6000606082019050611bca6000830186611625565b611bd76020830185611517565b611be46040830184611517565b949350505050565b6000611bf78261146b565b9150611c028361146b565b9250828201905080821115611c1a57611c1961178a565b5b9291505056fea264697066735822122061b0d5530ca3f52932fd3075d8fa49c7639aec55be1937bbb34eb1e01517acf664736f6c634300081c0033",
  "linkReferences": {},
  "deployedLinkReferences": {}
}