{
  "_format": "hh-sol-artifact-1",
  "contractName": "DD2ETHSwap1",
  "sourceName": "contracts/DD2ETHSwap1.sol",
  "abi": [
    {
      "inputs": [],
      "stateMutability": "nonpayable",
      "type": "constructor"
    },
    {
      "inputs": [
        {
          "internalType": "address",
          "name": "owner",
          "type": "address"
        }
      ],
      "name": "OwnableInvalidOwner",
      "type": "error"
    },
    {
      "inputs": [
        {
          "internalType": "address",
          "name": "account",
          "type": "address"
        }
      ],
      "name": "OwnableUnauthorizedAccount",
      "type": "error"
    },
    {
      "inputs": [],
      "name": "ReentrancyGuardReentrantCall",
      "type": "error"
    },
    {
      "anonymous": false,
      "inputs": [
        {
          "indexed": true,
          "internalType": "address",
          "name": "user",
          "type": "address"
        },
        {
          "indexed": false,
          "internalType": "uint256",
          "name": "ddAmount",
          "type": "uint256"
        },
        {
          "indexed": false,
          "internalType": "uint256",
          "name": "ethAmount",
          "type": "uint256"
        }
      ],
      "name": "DdToEthSwapped",
      "type": "event"
    },
    {
      "anonymous": false,
      "inputs": [
        {
          "indexed": true,
          "internalType": "address",
          "name": "user",
          "type": "address"
        },
        {
          "indexed": false,
          "internalType": "uint256",
          "name": "ethAmount",
          "type": "uint256"
        },
        {
          "indexed": false,
          "internalType": "uint256",
          "name": "ddAmount",
          "type": "uint256"
        }
      ],
      "name": "EthToDdSwapped",
      "type": "event"
    },
    {
      "anonymous": false,
      "inputs": [
        {
          "indexed": true,
          "internalType": "address",
          "name": "previousOwner",
          "type": "address"
        },
        {
          "indexed": true,
          "internalType": "address",
          "name": "newOwner",
          "type": "address"
        }
      ],
      "name": "OwnershipTransferred",
      "type": "event"
    },
    {
      "inputs": [],
      "name": "EXCHANGE_RATE",
      "outputs": [
        {
          "internalType": "uint256",
          "name": "",
          "type": "uint256"
        }
      ],
      "stateMutability": "view",
      "type": "function"
    },
    {
      "inputs": [],
      "name": "ddToken",
      "outputs": [
        {
          "internalType": "contract IERC20",
          "name": "",
          "type": "address"
        }
      ],
      "stateMutability": "view",
      "type": "function"
    },
    {
      "inputs": [],
      "name": "getDdBalance",
      "outputs": [
        {
          "internalType": "uint256",
          "name": "",
          "type": "uint256"
        }
      ],
      "stateMutability": "view",
      "type": "function"
    },
    {
      "inputs": [],
      "name": "getDdTokenAddress",
      "outputs": [
        {
          "internalType": "address",
          "name": "",
          "type": "address"
        }
      ],
      "stateMutability": "view",
      "type": "function"
    },
    {
      "inputs": [],
      "name": "getEthBalance",
      "outputs": [
        {
          "internalType": "uint256",
          "name": "",
          "type": "uint256"
        }
      ],
      "stateMutability": "view",
      "type": "function"
    },
    {
      "inputs": [],
      "name": "owner",
      "outputs": [
        {
          "internalType": "address",
          "name": "",
          "type": "address"
        }
      ],
      "stateMutability": "view",
      "type": "function"
    },
    {
      "inputs": [],
      "name": "renounceOwnership",
      "outputs": [],
      "stateMutability": "nonpayable",
      "type": "function"
    },
    {
      "inputs": [
        {
          "internalType": "address",
          "name": "_ddTokenAddress",
          "type": "address"
        }
      ],
      "name": "setDdTokenAddress",
      "outputs": [],
      "stateMutability": "nonpayable",
      "type": "function"
    },
    {
      "inputs": [
        {
          "internalType": "uint256",
          "name": "ddAmount",
          "type": "uint256"
        }
      ],
      "name": "swapDdToEth",
      "outputs": [],
      "stateMutability": "nonpayable",
      "type": "function"
    },
    {
      "inputs": [],
      "name": "swapEthToDd",
      "outputs": [],
      "stateMutability": "payable",
      "type": "function"
    },
    {
      "inputs": [
        {
          "internalType": "address",
          "name": "newOwner",
          "type": "address"
        }
      ],
      "name": "transferOwnership",
      "outputs": [],
      "stateMutability": "nonpayable",
      "type": "function"
    },
    {
      "inputs": [
        {
          "internalType": "uint256",
          "name": "amount",
          "type": "uint256"
        }
      ],
      "name": "withdrawDdTokens",
      "outputs": [],
      "stateMutability": "nonpayable",
      "type": "function"
    },
    {
      "inputs": [
        {
          "internalType": "uint256",
          "name": "amount",
          "type": "uint256"
        }
      ],
      "name": "withdrawEth",
      "outputs": [],
      "stateMutability": "nonpayable",
      "type": "function"
    },
    {
      "stateMutability": "payable",
      "type": "receive"
    }
  ],
  "bytecode": "0x608060405234801561001057600080fd5b5033600073ffffffffffffffffffffffffffffffffffffffff168173ffffffffffffffffffffffffffffffffffffffff16036100845760006040517f1e4fbdf700000000000000000000000000000000000000000000000000000000815260040161007b91906101a5565b60405180910390fd5b610093816100a060201b60201c565b50600180819055506101c0565b60008060009054906101000a900473ffffffffffffffffffffffffffffffffffffffff169050816000806101000a81548173ffffffffffffffffffffffffffffffffffffffff021916908373ffffffffffffffffffffffffffffffffffffffff1602179055508173ffffffffffffffffffffffffffffffffffffffff168173ffffffffffffffffffffffffffffffffffffffff167f8be0079c531659141344cd1fd0a4f28419497f9722a3daafe3b4186f6b6457e060405160405180910390a35050565b600073ffffffffffffffffffffffffffffffffffffffff82169050919050565b600061018f82610164565b9050919050565b61019f81610184565b82525050565b60006020820190506101ba6000830184610196565b92915050565b611a15806101cf6000396000f3fe6080604052600436106100c65760003560e01c80638da5cb5b1161007f578063c80a5c6511610059578063c80a5c651461023b578063d44cc17414610264578063f2fde38b1461026e578063fd938ab114610297576100cd565b80638da5cb5b146101bc578063b5d2e6d8146101e7578063c311d04914610212576100cd565b806313927fb0146100d257806314a8bd0d146100fb57806334f5de9e146101265780633958a3b41461014f57806370ed0ada1461017a578063715018a6146101a5576100cd565b366100cd57005b600080fd5b3480156100de57600080fd5b506100f960048036038101906100f491906110f3565b6102c2565b005b34801561010757600080fd5b5061011061037d565b60405161011d9190611139565b60405180910390f35b34801561013257600080fd5b5061014d60048036038101906101489190611180565b610383565b005b34801561015b57600080fd5b5061016461069e565b60405161017191906111bc565b60405180910390f35b34801561018657600080fd5b5061018f6106c8565b60405161019c9190611139565b60405180910390f35b3480156101b157600080fd5b506101ba6106d0565b005b3480156101c857600080fd5b506101d16106e4565b6040516101de91906111bc565b60405180910390f35b3480156101f357600080fd5b506101fc61070d565b6040516102099190611236565b60405180910390f35b34801561021e57600080fd5b5061023960048036038101906102349190611180565b610733565b005b34801561024757600080fd5b50610262600480360381019061025d9190611180565b6107cf565b005b61026c610a2f565b005b34801561027a57600080fd5b50610295600480360381019061029091906110f3565b610d35565b005b3480156102a357600080fd5b506102ac610dbb565b6040516102b99190611139565b60405180910390f35b6102ca610eee565b600073ffffffffffffffffffffffffffffffffffffffff168173ffffffffffffffffffffffffffffffffffffffff1603610339576040517f08c379a0000000000000000000000000000000000000000000000000000000008152600401610330906112ae565b60405180910390fd5b80600260006101000a81548173ffffffffffffffffffffffffffffffffffffffff021916908373ffffffffffffffffffffffffffffffffffffffff16021790555050565b6103e881565b61038b610f75565b600073ffffffffffffffffffffffffffffffffffffffff16600260009054906101000a900473ffffffffffffffffffffffffffffffffffffffff1673ffffffffffffffffffffffffffffffffffffffff160361041c576040517f08c379a00000000000000000000000000000000000000000000000000000000081526004016104139061131a565b60405180910390fd5b6000811161045f576040517f08c379a000000000000000000000000000000000000000000000000000000000815260040161045690611386565b60405180910390fd5b60006103e88261046f9190611404565b9050804710156104b4576040517f08c379a00000000000000000000000000000000000000000000000000000000081526004016104ab90611481565b60405180910390fd5b600260009054906101000a900473ffffffffffffffffffffffffffffffffffffffff1673ffffffffffffffffffffffffffffffffffffffff166323b872dd3330856040518463ffffffff1660e01b8152600401610513939291906114a1565b6020604051808303816000875af1158015610532573d6000803e3d6000fd5b505050506040513d601f19601f820116820180604052508101906105569190611510565b610595576040517f08c379a000000000000000000000000000000000000000000000000000000000815260040161058c90611589565b60405180910390fd5b60003373ffffffffffffffffffffffffffffffffffffffff16826040516105bb906115da565b60006040518083038185875af1925050503d80600081146105f8576040519150601f19603f3d011682016040523d82523d6000602084013e6105fd565b606091505b5050905080610641576040517f08c379a00000000000000000000000000000000000000000000000000000000081526004016106389061163b565b60405180910390fd5b3373ffffffffffffffffffffffffffffffffffffffff167f2e94c032e4d5868dc847ea8bb8e0f1e85deb86f7528f21b085630ab186338927848460405161068992919061165b565b60405180910390a2505061069b610fbb565b50565b6000600260009054906101000a900473ffffffffffffffffffffffffffffffffffffffff16905090565b600047905090565b6106d8610eee565b6106e26000610fc4565b565b60008060009054906101000a900473ffffffffffffffffffffffffffffffffffffffff16905090565b600260009054906101000a900473ffffffffffffffffffffffffffffffffffffffff1681565b61073b610eee565b4781111561077e576040517f08c379a0000000000000000000000000000000000000000000000000000000008152600401610775906116d0565b60405180910390fd5b6107866106e4565b73ffffffffffffffffffffffffffffffffffffffff166108fc829081150290604051600060405180830381858888f193505050501580156107cb573d6000803e3d6000fd5b5050565b6107d7610eee565b600073ffffffffffffffffffffffffffffffffffffffff16600260009054906101000a900473ffffffffffffffffffffffffffffffffffffffff1673ffffffffffffffffffffffffffffffffffffffff1603610868576040517f08c379a000000000000000000000000000000000000000000000000000000000815260040161085f9061131a565b60405180910390fd5b600260009054906101000a900473ffffffffffffffffffffffffffffffffffffffff1673ffffffffffffffffffffffffffffffffffffffff166370a08231306040518263ffffffff1660e01b81526004016108c391906111bc565b602060405180830381865afa1580156108e0573d6000803e3d6000fd5b505050506040513d601f19601f820116820180604052508101906109049190611705565b811115610946576040517f08c379a000000000000000000000000000000000000000000000000000000000815260040161093d9061177e565b60405180910390fd5b600260009054906101000a900473ffffffffffffffffffffffffffffffffffffffff1673ffffffffffffffffffffffffffffffffffffffff1663a9059cbb61098c6106e4565b836040518363ffffffff1660e01b81526004016109aa92919061179e565b6020604051808303816000875af11580156109c9573d6000803e3d6000fd5b505050506040513d601f19601f820116820180604052508101906109ed9190611510565b610a2c576040517f08c379a0000000000000000000000000000000000000000000000000000000008152600401610a2390611813565b60405180910390fd5b50565b610a37610f75565b600073ffffffffffffffffffffffffffffffffffffffff16600260009054906101000a900473ffffffffffffffffffffffffffffffffffffffff1673ffffffffffffffffffffffffffffffffffffffff1603610ac8576040517f08c379a0000000000000000000000000000000000000000000000000000000008152600401610abf9061131a565b60405180910390fd5b60003411610b0b576040517f08c379a0000000000000000000000000000000000000000000000000000000008152600401610b029061187f565b60405180910390fd5b60006103e834610b1b919061189f565b905080600260009054906101000a900473ffffffffffffffffffffffffffffffffffffffff1673ffffffffffffffffffffffffffffffffffffffff166370a08231306040518263ffffffff1660e01b8152600401610b7991906111bc565b602060405180830381865afa158015610b96573d6000803e3d6000fd5b505050506040513d601f19601f82011682018060405250810190610bba9190611705565b1015610bfb576040517f08c379a0000000000000000000000000000000000000000000000000000000008152600401610bf290611953565b60405180910390fd5b600260009054906101000a900473ffffffffffffffffffffffffffffffffffffffff1673ffffffffffffffffffffffffffffffffffffffff1663a9059cbb33836040518363ffffffff1660e01b8152600401610c5892919061179e565b6020604051808303816000875af1158015610c77573d6000803e3d6000fd5b505050506040513d601f19601f82011682018060405250810190610c9b9190611510565b610cda576040517f08c379a0000000000000000000000000000000000000000000000000000000008152600401610cd190611589565b60405180910390fd5b3373ffffffffffffffffffffffffffffffffffffffff167f0d8d17345420b4dc358a3fa5baaa09348929418a13aa59fd172965307f817c003483604051610d2292919061165b565b60405180910390a250610d33610fbb565b565b610d3d610eee565b600073ffffffffffffffffffffffffffffffffffffffff168173ffffffffffffffffffffffffffffffffffffffff1603610daf5760006040517f1e4fbdf7000000000000000000000000000000000000000000000000000000008152600401610da691906111bc565b60405180910390fd5b610db881610fc4565b50565b60008073ffffffffffffffffffffffffffffffffffffffff16600260009054906101000a900473ffffffffffffffffffffffffffffffffffffffff1673ffffffffffffffffffffffffffffffffffffffff1603610e4d576040517f08c379a0000000000000000000000000000000000000000000000000000000008152600401610e44906119bf565b60405180910390fd5b600260009054906101000a900473ffffffffffffffffffffffffffffffffffffffff1673ffffffffffffffffffffffffffffffffffffffff166370a08231306040518263ffffffff1660e01b8152600401610ea891906111bc565b602060405180830381865afa158015610ec5573d6000803e3d6000fd5b505050506040513d601f19601f82011682018060405250810190610ee99190611705565b905090565b610ef6611088565b73ffffffffffffffffffffffffffffffffffffffff16610f146106e4565b73ffffffffffffffffffffffffffffffffffffffff1614610f7357610f37611088565b6040517f118cdaa7000000000000000000000000000000000000000000000000000000008152600401610f6a91906111bc565b60405180910390fd5b565b600260015403610fb1576040517f3ee5aeb500000000000000000000000000000000000000000000000000000000815260040160405180910390fd5b6002600181905550565b60018081905550565b60008060009054906101000a900473ffffffffffffffffffffffffffffffffffffffff169050816000806101000a81548173ffffffffffffffffffffffffffffffffffffffff021916908373ffffffffffffffffffffffffffffffffffffffff1602179055508173ffffffffffffffffffffffffffffffffffffffff168173ffffffffffffffffffffffffffffffffffffffff167f8be0079c531659141344cd1fd0a4f28419497f9722a3daafe3b4186f6b6457e060405160405180910390a35050565b600033905090565b600080fd5b600073ffffffffffffffffffffffffffffffffffffffff82169050919050565b60006110c082611095565b9050919050565b6110d0816110b5565b81146110db57600080fd5b50565b6000813590506110ed816110c7565b92915050565b60006020828403121561110957611108611090565b5b6000611117848285016110de565b91505092915050565b6000819050919050565b61113381611120565b82525050565b600060208201905061114e600083018461112a565b92915050565b61115d81611120565b811461116857600080fd5b50565b60008135905061117a81611154565b92915050565b60006020828403121561119657611195611090565b5b60006111a48482850161116b565b91505092915050565b6111b6816110b5565b82525050565b60006020820190506111d160008301846111ad565b92915050565b6000819050919050565b60006111fc6111f76111f284611095565b6111d7565b611095565b9050919050565b600061120e826111e1565b9050919050565b600061122082611203565b9050919050565b61123081611215565b82525050565b600060208201905061124b6000830184611227565b92915050565b600082825260208201905092915050565b7f496e76616c696420444420746f6b656e20616464726573730000000000000000600082015250565b6000611298601883611251565b91506112a382611262565b602082019050919050565b600060208201905081810360008301526112c78161128b565b9050919050565b7f444420746f6b656e2061646472657373206e6f74207365740000000000000000600082015250565b6000611304601883611251565b915061130f826112ce565b602082019050919050565b60006020820190508181036000830152611333816112f7565b9050919050565b7f444420616d6f756e74206d7573742062652067726561746572207468616e2030600082015250565b6000611370602083611251565b915061137b8261133a565b602082019050919050565b6000602082019050818103600083015261139f81611363565b9050919050565b7f4e487b7100000000000000000000000000000000000000000000000000000000600052601260045260246000fd5b7f4e487b7100000000000000000000000000000000000000000000000000000000600052601160045260246000fd5b600061140f82611120565b915061141a83611120565b92508261142a576114296113a6565b5b828204905092915050565b7f496e73756666696369656e742045544820696e20636f6e747261637400000000600082015250565b600061146b601c83611251565b915061147682611435565b602082019050919050565b6000602082019050818103600083015261149a8161145e565b9050919050565b60006060820190506114b660008301866111ad565b6114c360208301856111ad565b6114d0604083018461112a565b949350505050565b60008115159050919050565b6114ed816114d8565b81146114f857600080fd5b50565b60008151905061150a816114e4565b92915050565b60006020828403121561152657611525611090565b5b6000611534848285016114fb565b91505092915050565b7f444420746f6b656e207472616e73666572206661696c65640000000000000000600082015250565b6000611573601883611251565b915061157e8261153d565b602082019050919050565b600060208201905081810360008301526115a281611566565b9050919050565b600081905092915050565b50565b60006115c46000836115a9565b91506115cf826115b4565b600082019050919050565b60006115e5826115b7565b9150819050919050565b7f455448207472616e73666572206661696c656400000000000000000000000000600082015250565b6000611625601383611251565b9150611630826115ef565b602082019050919050565b6000602082019050818103600083015261165481611618565b9050919050565b6000604082019050611670600083018561112a565b61167d602083018461112a565b9392505050565b7f496e73756666696369656e742062616c616e6365000000000000000000000000600082015250565b60006116ba601483611251565b91506116c582611684565b602082019050919050565b600060208201905081810360008301526116e9816116ad565b9050919050565b6000815190506116ff81611154565b92915050565b60006020828403121561171b5761171a611090565b5b6000611729848285016116f0565b91505092915050565b7f496e73756666696369656e742044442062616c616e6365000000000000000000600082015250565b6000611768601783611251565b915061177382611732565b602082019050919050565b600060208201905081810360008301526117978161175b565b9050919050565b60006040820190506117b360008301856111ad565b6117c0602083018461112a565b9392505050565b7f5472616e73666572206661696c65640000000000000000000000000000000000600082015250565b60006117fd600f83611251565b9150611808826117c7565b602082019050919050565b6000602082019050818103600083015261182c816117f0565b9050919050565b7f4d7573742073656e642045544800000000000000000000000000000000000000600082015250565b6000611869600d83611251565b915061187482611833565b602082019050919050565b600060208201905081810360008301526118988161185c565b9050919050565b60006118aa82611120565b91506118b583611120565b92508282026118c381611120565b915082820484148315176118da576118d96113d5565b5b5092915050565b7f496e73756666696369656e7420444420746f6b656e7320696e20636f6e74726160008201527f6374000000000000000000000000000000000000000000000000000000000000602082015250565b600061193d602283611251565b9150611948826118e1565b604082019050919050565b6000602082019050818103600083015261196c81611930565b9050919050565b7f444420746f6b656e206e6f742073657400000000000000000000000000000000600082015250565b60006119a9601083611251565b91506119b482611973565b602082019050919050565b600060208201905081810360008301526119d88161199c565b905091905056fea26469706673582212207e7cac68a7aa9c5213275aedf6801ab575b12c9e54b71df0643874a469fc521264736f6c634300081c0033",
  "linkReferences": {},
  "deployedLinkReferences": {}
}