{
  "_format": "hh-sol-artifact-1",
  "contractName": "MyDDToken",
  "sourceName": "contracts/MyDDToken.sol",
  "abi": [
    {
      "inputs": [],
      "stateMutability": "nonpayable",
      "type": "constructor"
    },
    {
      "inputs": [
        {
          "internalType": "address",
          "name": "spender",
          "type": "address"
        },
        {
          "internalType": "uint256",
          "name": "allowance",
          "type": "uint256"
        },
        {
          "internalType": "uint256",
          "name": "needed",
          "type": "uint256"
        }
      ],
      "name": "ERC20InsufficientAllowance",
      "type": "error"
    },
    {
      "inputs": [
        {
          "internalType": "address",
          "name": "sender",
          "type": "address"
        },
        {
          "internalType": "uint256",
          "name": "balance",
          "type": "uint256"
        },
        {
          "internalType": "uint256",
          "name": "needed",
          "type": "uint256"
        }
      ],
      "name": "ERC20InsufficientBalance",
      "type": "error"
    },
    {
      "inputs": [
        {
          "internalType": "address",
          "name": "approver",
          "type": "address"
        }
      ],
      "name": "ERC20InvalidApprover",
      "type": "error"
    },
    {
      "inputs": [
        {
          "internalType": "address",
          "name": "receiver",
          "type": "address"
        }
      ],
      "name": "ERC20InvalidReceiver",
      "type": "error"
    },
    {
      "inputs": [
        {
          "internalType": "address",
          "name": "sender",
          "type": "address"
        }
      ],
      "name": "ERC20InvalidSender",
      "type": "error"
    },
    {
      "inputs": [
        {
          "internalType": "address",
          "name": "spender",
          "type": "address"
        }
      ],
      "name": "ERC20InvalidSpender",
      "type": "error"
    },
    {
      "anonymous": false,
      "inputs": [
        {
          "indexed": true,
          "internalType": "address",
          "name": "owner",
          "type": "address"
        },
        {
          "indexed": true,
          "internalType": "address",
          "name": "spender",
          "type": "address"
        },
        {
          "indexed": false,
          "internalType": "uint256",
          "name": "value",
          "type": "uint256"
        }
      ],
      "name": "Approval",
      "type": "event"
    },
    {
      "anonymous": false,
      "inputs": [
        {
          "indexed": true,
          "internalType": "address",
          "name": "from",
          "type": "address"
        },
        {
          "indexed": true,
          "internalType": "address",
          "name": "to",
          "type": "address"
        },
        {
          "indexed": false,
          "internalType": "uint256",
          "name": "value",
          "type": "uint256"
        }
      ],
      "name": "Transfer",
      "type": "event"
    },
    {
      "inputs": [],
      "name": "TOKENNAME",
      "outputs": [
        {
          "internalType": "string",
          "name": "",
          "type": "string"
        }
      ],
      "stateMutability": "view",
      "type": "function"
    },
    {
      "inputs": [],
      "name": "TOKENYMBOL",
      "outputs": [
        {
          "internalType": "string",
          "name": "",
          "type": "string"
        }
      ],
      "stateMutability": "view",
      "type": "function"
    },
    {
      "inputs": [],
      "name": "TOKEN_INITSUPPLY",
      "outputs": [
        {
          "internalType": "uint256",
          "name": "",
          "type": "uint256"
        }
      ],
      "stateMutability": "view",
      "type": "function"
    },
    {
      "inputs": [
        {
          "internalType": "address",
          "name": "owner",
          "type": "address"
        },
        {
          "internalType": "address",
          "name": "spender",
          "type": "address"
        }
      ],
      "name": "allowance",
      "outputs": [
        {
          "internalType": "uint256",
          "name": "",
          "type": "uint256"
        }
      ],
      "stateMutability": "view",
      "type": "function"
    },
    {
      "inputs": [
        {
          "internalType": "address",
          "name": "spender",
          "type": "address"
        },
        {
          "internalType": "uint256",
          "name": "value",
          "type": "uint256"
        }
      ],
      "name": "approve",
      "outputs": [
        {
          "internalType": "bool",
          "name": "",
          "type": "bool"
        }
      ],
      "stateMutability": "nonpayable",
      "type": "function"
    },
    {
      "inputs": [
        {
          "internalType": "address",
          "name": "account",
          "type": "address"
        }
      ],
      "name": "balanceOf",
      "outputs": [
        {
          "internalType": "uint256",
          "name": "",
          "type": "uint256"
        }
      ],
      "stateMutability": "view",
      "type": "function"
    },
    {
      "inputs": [],
      "name": "decimals",
      "outputs": [
        {
          "internalType": "uint8",
          "name": "",
          "type": "uint8"
        }
      ],
      "stateMutability": "view",
      "type": "function"
    },
    {
      "inputs": [],
      "name": "name",
      "outputs": [
        {
          "internalType": "string",
          "name": "",
          "type": "string"
        }
      ],
      "stateMutability": "view",
      "type": "function"
    },
    {
      "inputs": [],
      "name": "symbol",
      "outputs": [
        {
          "internalType": "string",
          "name": "",
          "type": "string"
        }
      ],
      "stateMutability": "view",
      "type": "function"
    },
    {
      "inputs": [],
      "name": "totalSupply",
      "outputs": [
        {
          "internalType": "uint256",
          "name": "",
          "type": "uint256"
        }
      ],
      "stateMutability": "view",
      "type": "function"
    },
    {
      "inputs": [
        {
          "internalType": "address",
          "name": "to",
          "type": "address"
        },
        {
          "internalType": "uint256",
          "name": "value",
          "type": "uint256"
        }
      ],
      "name": "transfer",
      "outputs": [
        {
          "internalType": "bool",
          "name": "",
          "type": "bool"
        }
      ],
      "stateMutability": "nonpayable",
      "type": "function"
    },
    {
      "inputs": [
        {
          "internalType": "address",
          "name": "from",
          "type": "address"
        },
        {
          "internalType": "address",
          "name": "to",
          "type": "address"
        },
        {
          "internalType": "uint256",
          "name": "value",
          "type": "uint256"
        }
      ],
      "name": "transferFrom",
      "outputs": [
        {
          "internalType": "bool",
          "name": "",
          "type": "bool"
        }
      ],
      "stateMutability": "nonpayable",
      "type": "function"
    }
  ],
  "bytecode": "0x608060405234801561001057600080fd5b506040518060400160405280600d81526020017f44616e6744616e67544f4b454e000000000000000000000000000000000000008152506040518060400160405280600281526020017f4444000000000000000000000000000000000000000000000000000000000000815250816003908161008c91906105ba565b50806004908161009c91906105ba565b5050506100b833683635c9adc5dea000006100bd60201b60201c565b6107ac565b600073ffffffffffffffffffffffffffffffffffffffff168273ffffffffffffffffffffffffffffffffffffffff160361012f5760006040517fec442f0500000000000000000000000000000000000000000000000000000000815260040161012691906106cd565b60405180910390fd5b6101416000838361014560201b60201c565b5050565b600073ffffffffffffffffffffffffffffffffffffffff168373ffffffffffffffffffffffffffffffffffffffff160361019757806002600082825461018b9190610717565b9250508190555061026a565b60008060008573ffffffffffffffffffffffffffffffffffffffff1673ffffffffffffffffffffffffffffffffffffffff16815260200190815260200160002054905081811015610223578381836040517fe450d38c00000000000000000000000000000000000000000000000000000000815260040161021a9392919061075a565b60405180910390fd5b8181036000808673ffffffffffffffffffffffffffffffffffffffff1673ffffffffffffffffffffffffffffffffffffffff16815260200190815260200160002081905550505b600073ffffffffffffffffffffffffffffffffffffffff168273ffffffffffffffffffffffffffffffffffffffff16036102b35780600260008282540392505081905550610300565b806000808473ffffffffffffffffffffffffffffffffffffffff1673ffffffffffffffffffffffffffffffffffffffff168152602001908152602001600020600082825401925050819055505b8173ffffffffffffffffffffffffffffffffffffffff168373ffffffffffffffffffffffffffffffffffffffff167fddf252ad1be2c89b69c2b068fc378daa952ba7f163c4a11628f55a4df523b3ef8360405161035d9190610791565b60405180910390a3505050565b600081519050919050565b7f4e487b7100000000000000000000000000000000000000000000000000000000600052604160045260246000fd5b7f4e487b7100000000000000000000000000000000000000000000000000000000600052602260045260246000fd5b600060028204905060018216806103eb57607f821691505b6020821081036103fe576103fd6103a4565b5b50919050565b60008190508160005260206000209050919050565b60006020601f8301049050919050565b600082821b905092915050565b6000600883026104667fffffffffffffffffffffffffffffffffffffffffffffffffffffffffffffffff82610429565b6104708683610429565b95508019841693508086168417925050509392505050565b6000819050919050565b6000819050919050565b60006104b76104b26104ad84610488565b610492565b610488565b9050919050565b6000819050919050565b6104d18361049c565b6104e56104dd826104be565b848454610436565b825550505050565b600090565b6104fa6104ed565b6105058184846104c8565b505050565b5b818110156105295761051e6000826104f2565b60018101905061050b565b5050565b601f82111561056e5761053f81610404565b61054884610419565b81016020851015610557578190505b61056b61056385610419565b83018261050a565b50505b505050565b600082821c905092915050565b600061059160001984600802610573565b1980831691505092915050565b60006105aa8383610580565b9150826002028217905092915050565b6105c38261036a565b67ffffffffffffffff8111156105dc576105db610375565b5b6105e682546103d3565b6105f182828561052d565b600060209050601f8311600181146106245760008415610612578287015190505b61061c858261059e565b865550610684565b601f19841661063286610404565b60005b8281101561065a57848901518255600182019150602085019450602081019050610635565b868310156106775784890151610673601f891682610580565b8355505b6001600288020188555050505b505050505050565b600073ffffffffffffffffffffffffffffffffffffffff82169050919050565b60006106b78261068c565b9050919050565b6106c7816106ac565b82525050565b60006020820190506106e260008301846106be565b92915050565b7f4e487b7100000000000000000000000000000000000000000000000000000000600052601160045260246000fd5b600061072282610488565b915061072d83610488565b9250828201905080821115610745576107446106e8565b5b92915050565b61075481610488565b82525050565b600060608201905061076f60008301866106be565b61077c602083018561074b565b610789604083018461074b565b949350505050565b60006020820190506107a6600083018461074b565b92915050565b610f50806107bb6000396000f3fe608060405234801561001057600080fd5b50600436106100b45760003560e01c806370a082311161007157806370a082311461019157806395d89b41146101c1578063a78df4f5146101df578063a9059cbb146101fd578063dd62ed3e1461022d578063f05bebc41461025d576100b4565b806306fdde03146100b9578063095ea7b3146100d75780630f40e3541461010757806318160ddd1461012557806323b872dd14610143578063313ce56714610173575b600080fd5b6100c161027b565b6040516100ce9190610ba4565b60405180910390f35b6100f160048036038101906100ec9190610c5f565b61030d565b6040516100fe9190610cba565b60405180910390f35b61010f610330565b60405161011c9190610ce4565b60405180910390f35b61012d61033d565b60405161013a9190610ce4565b60405180910390f35b61015d60048036038101906101589190610cff565b610347565b60405161016a9190610cba565b60405180910390f35b61017b610376565b6040516101889190610d6e565b60405180910390f35b6101ab60048036038101906101a69190610d89565b61037f565b6040516101b89190610ce4565b60405180910390f35b6101c96103c7565b6040516101d69190610ba4565b60405180910390f35b6101e7610459565b6040516101f49190610ba4565b60405180910390f35b61021760048036038101906102129190610c5f565b610492565b6040516102249190610cba565b60405180910390f35b61024760048036038101906102429190610db6565b6104b5565b6040516102549190610ce4565b60405180910390f35b61026561053c565b6040516102729190610ba4565b60405180910390f35b60606003805461028a90610e25565b80601f01602080910402602001604051908101604052809291908181526020018280546102b690610e25565b80156103035780601f106102d857610100808354040283529160200191610303565b820191906000526020600020905b8154815290600101906020018083116102e657829003601f168201915b5050505050905090565b600080610318610575565b905061032581858561057d565b600191505092915050565b683635c9adc5dea0000081565b6000600254905090565b600080610352610575565b905061035f85828561058f565b61036a858585610624565b60019150509392505050565b60006012905090565b60008060008373ffffffffffffffffffffffffffffffffffffffff1673ffffffffffffffffffffffffffffffffffffffff168152602001908152602001600020549050919050565b6060600480546103d690610e25565b80601f016020809104026020016040519081016040528092919081815260200182805461040290610e25565b801561044f5780601f106104245761010080835404028352916020019161044f565b820191906000526020600020905b81548152906001019060200180831161043257829003601f168201915b5050505050905090565b6040518060400160405280600281526020017f444400000000000000000000000000000000000000000000000000000000000081525081565b60008061049d610575565b90506104aa818585610624565b600191505092915050565b6000600160008473ffffffffffffffffffffffffffffffffffffffff1673ffffffffffffffffffffffffffffffffffffffff16815260200190815260200160002060008373ffffffffffffffffffffffffffffffffffffffff1673ffffffffffffffffffffffffffffffffffffffff16815260200190815260200160002054905092915050565b6040518060400160405280600d81526020017f44616e6744616e67544f4b454e0000000000000000000000000000000000000081525081565b600033905090565b61058a8383836001610718565b505050565b600061059b84846104b5565b90507fffffffffffffffffffffffffffffffffffffffffffffffffffffffffffffffff81101561061e578181101561060e578281836040517ffb8f41b200000000000000000000000000000000000000000000000000000000815260040161060593929190610e65565b60405180910390fd5b61061d84848484036000610718565b5b50505050565b600073ffffffffffffffffffffffffffffffffffffffff168373ffffffffffffffffffffffffffffffffffffffff16036106965760006040517f96c6fd1e00000000000000000000000000000000000000000000000000000000815260040161068d9190610e9c565b60405180910390fd5b600073ffffffffffffffffffffffffffffffffffffffff168273ffffffffffffffffffffffffffffffffffffffff16036107085760006040517fec442f050000000000000000000000000000000000000000000000000000000081526004016106ff9190610e9c565b60405180910390fd5b6107138383836108ef565b505050565b600073ffffffffffffffffffffffffffffffffffffffff168473ffffffffffffffffffffffffffffffffffffffff160361078a5760006040517fe602df050000000000000000000000000000000000000000000000000000000081526004016107819190610e9c565b60405180910390fd5b600073ffffffffffffffffffffffffffffffffffffffff168373ffffffffffffffffffffffffffffffffffffffff16036107fc5760006040517f94280d620000000000000000000000000000000000000000000000000000000081526004016107f39190610e9c565b60405180910390fd5b81600160008673ffffffffffffffffffffffffffffffffffffffff1673ffffffffffffffffffffffffffffffffffffffff16815260200190815260200160002060008573ffffffffffffffffffffffffffffffffffffffff1673ffffffffffffffffffffffffffffffffffffffff1681526020019081526020016000208190555080156108e9578273ffffffffffffffffffffffffffffffffffffffff168473ffffffffffffffffffffffffffffffffffffffff167f8c5be1e5ebec7d5bd14f71427d1e84f3dd0314c0f7b2291e5b200ac8c7c3b925846040516108e09190610ce4565b60405180910390a35b50505050565b600073ffffffffffffffffffffffffffffffffffffffff168373ffffffffffffffffffffffffffffffffffffffff16036109415780600260008282546109359190610ee6565b92505081905550610a14565b60008060008573ffffffffffffffffffffffffffffffffffffffff1673ffffffffffffffffffffffffffffffffffffffff168152602001908152602001600020549050818110156109cd578381836040517fe450d38c0000000000000000000000000000000000000000000000000000000081526004016109c493929190610e65565b60405180910390fd5b8181036000808673ffffffffffffffffffffffffffffffffffffffff1673ffffffffffffffffffffffffffffffffffffffff16815260200190815260200160002081905550505b600073ffffffffffffffffffffffffffffffffffffffff168273ffffffffffffffffffffffffffffffffffffffff1603610a5d5780600260008282540392505081905550610aaa565b806000808473ffffffffffffffffffffffffffffffffffffffff1673ffffffffffffffffffffffffffffffffffffffff168152602001908152602001600020600082825401925050819055505b8173ffffffffffffffffffffffffffffffffffffffff168373ffffffffffffffffffffffffffffffffffffffff167fddf252ad1be2c89b69c2b068fc378daa952ba7f163c4a11628f55a4df523b3ef83604051610b079190610ce4565b60405180910390a3505050565b600081519050919050565b600082825260208201905092915050565b60005b83811015610b4e578082015181840152602081019050610b33565b60008484015250505050565b6000601f19601f8301169050919050565b6000610b7682610b14565b610b808185610b1f565b9350610b90818560208601610b30565b610b9981610b5a565b840191505092915050565b60006020820190508181036000830152610bbe8184610b6b565b905092915050565b600080fd5b600073ffffffffffffffffffffffffffffffffffffffff82169050919050565b6000610bf682610bcb565b9050919050565b610c0681610beb565b8114610c1157600080fd5b50565b600081359050610c2381610bfd565b92915050565b6000819050919050565b610c3c81610c29565b8114610c4757600080fd5b50565b600081359050610c5981610c33565b92915050565b60008060408385031215610c7657610c75610bc6565b5b6000610c8485828601610c14565b9250506020610c9585828601610c4a565b9150509250929050565b60008115159050919050565b610cb481610c9f565b82525050565b6000602082019050610ccf6000830184610cab565b92915050565b610cde81610c29565b82525050565b6000602082019050610cf96000830184610cd5565b92915050565b600080600060608486031215610d1857610d17610bc6565b5b6000610d2686828701610c14565b9350506020610d3786828701610c14565b9250506040610d4886828701610c4a565b9150509250925092565b600060ff82169050919050565b610d6881610d52565b82525050565b6000602082019050610d836000830184610d5f565b92915050565b600060208284031215610d9f57610d9e610bc6565b5b6000610dad84828501610c14565b91505092915050565b60008060408385031215610dcd57610dcc610bc6565b5b6000610ddb85828601610c14565b9250506020610dec85828601610c14565b9150509250929050565b7f4e487b7100000000000000000000000000000000000000000000000000000000600052602260045260246000fd5b60006002820490506001821680610e3d57607f821691505b602082108103610e5057610e4f610df6565b5b50919050565b610e5f81610beb565b82525050565b6000606082019050610e7a6000830186610e56565b610e876020830185610cd5565b610e946040830184610cd5565b949350505050565b6000602082019050610eb16000830184610e56565b92915050565b7f4e487b7100000000000000000000000000000000000000000000000000000000600052601160045260246000fd5b6000610ef182610c29565b9150610efc83610c29565b9250828201905080821115610f1457610f13610eb7565b5b9291505056fea2646970667358221220c6b1159cfa070e99c644c878cbcb84586ffa6a7c8467ca5bd965171070bbc8cc64736f6c634300081c0033",
  "linkReferences": {},
  "deployedLinkReferences": {}
}