{
  "_format": "hh-sol-artifact-1",
  "contractName": "MyToken",
  "sourceName": "contracts/MyToken.sol",
  "abi": [
    {
      "inputs": [],
      "stateMutability": "nonpayable",
      "type": "constructor"
    },
    {
      "inputs": [
        {
          "internalType": "address",
          "name": "spender",
          "type": "address"
        },
        {
          "internalType": "uint256",
          "name": "allowance",
          "type": "uint256"
        },
        {
          "internalType": "uint256",
          "name": "needed",
          "type": "uint256"
        }
      ],
      "name": "ERC20InsufficientAllowance",
      "type": "error"
    },
    {
      "inputs": [
        {
          "internalType": "address",
          "name": "sender",
          "type": "address"
        },
        {
          "internalType": "uint256",
          "name": "balance",
          "type": "uint256"
        },
        {
          "internalType": "uint256",
          "name": "needed",
          "type": "uint256"
        }
      ],
      "name": "ERC20InsufficientBalance",
      "type": "error"
    },
    {
      "inputs": [
        {
          "internalType": "address",
          "name": "approver",
          "type": "address"
        }
      ],
      "name": "ERC20InvalidApprover",
      "type": "error"
    },
    {
      "inputs": [
        {
          "internalType": "address",
          "name": "receiver",
          "type": "address"
        }
      ],
      "name": "ERC20InvalidReceiver",
      "type": "error"
    },
    {
      "inputs": [
        {
          "internalType": "address",
          "name": "sender",
          "type": "address"
        }
      ],
      "name": "ERC20InvalidSender",
      "type": "error"
    },
    {
      "inputs": [
        {
          "internalType": "address",
          "name": "spender",
          "type": "address"
        }
      ],
      "name": "ERC20InvalidSpender",
      "type": "error"
    },
    {
      "anonymous": false,
      "inputs": [
        {
          "indexed": true,
          "internalType": "address",
          "name": "owner",
          "type": "address"
        },
        {
          "indexed": true,
          "internalType": "address",
          "name": "spender",
          "type": "address"
        },
        {
          "indexed": false,
          "internalType": "uint256",
          "name": "value",
          "type": "uint256"
        }
      ],
      "name": "Approval",
      "type": "event"
    },
    {
      "anonymous": false,
      "inputs": [
        {
          "indexed": true,
          "internalType": "address",
          "name": "from",
          "type": "address"
        },
        {
          "indexed": true,
          "internalType": "address",
          "name": "to",
          "type": "address"
        },
        {
          "indexed": false,
          "internalType": "uint256",
          "name": "value",
          "type": "uint256"
        }
      ],
      "name": "Transfer",
      "type": "event"
    },
    {
      "inputs": [],
      "name": "TOKENNAME",
      "outputs": [
        {
          "internalType": "string",
          "name": "",
          "type": "string"
        }
      ],
      "stateMutability": "view",
      "type": "function"
    },
    {
      "inputs": [],
      "name": "TOKENYMBOL",
      "outputs": [
        {
          "internalType": "string",
          "name": "",
          "type": "string"
        }
      ],
      "stateMutability": "view",
      "type": "function"
    },
    {
      "inputs": [],
      "name": "TOKEN_INITSUPPLY",
      "outputs": [
        {
          "internalType": "uint256",
          "name": "",
          "type": "uint256"
        }
      ],
      "stateMutability": "view",
      "type": "function"
    },
    {
      "inputs": [
        {
          "internalType": "address",
          "name": "owner",
          "type": "address"
        },
        {
          "internalType": "address",
          "name": "spender",
          "type": "address"
        }
      ],
      "name": "allowance",
      "outputs": [
        {
          "internalType": "uint256",
          "name": "",
          "type": "uint256"
        }
      ],
      "stateMutability": "view",
      "type": "function"
    },
    {
      "inputs": [
        {
          "internalType": "address",
          "name": "spender",
          "type": "address"
        },
        {
          "internalType": "uint256",
          "name": "value",
          "type": "uint256"
        }
      ],
      "name": "approve",
      "outputs": [
        {
          "internalType": "bool",
          "name": "",
          "type": "bool"
        }
      ],
      "stateMutability": "nonpayable",
      "type": "function"
    },
    {
      "inputs": [
        {
          "internalType": "address",
          "name": "account",
          "type": "address"
        }
      ],
      "name": "balanceOf",
      "outputs": [
        {
          "internalType": "uint256",
          "name": "",
          "type": "uint256"
        }
      ],
      "stateMutability": "view",
      "type": "function"
    },
    {
      "inputs": [],
      "name": "decimals",
      "outputs": [
        {
          "internalType": "uint8",
          "name": "",
          "type": "uint8"
        }
      ],
      "stateMutability": "view",
      "type": "function"
    },
    {
      "inputs": [],
      "name": "name",
      "outputs": [
        {
          "internalType": "string",
          "name": "",
          "type": "string"
        }
      ],
      "stateMutability": "view",
      "type": "function"
    },
    {
      "inputs": [],
      "name": "symbol",
      "outputs": [
        {
          "internalType": "string",
          "name": "",
          "type": "string"
        }
      ],
      "stateMutability": "view",
      "type": "function"
    },
    {
      "inputs": [],
      "name": "totalSupply",
      "outputs": [
        {
          "internalType": "uint256",
          "name": "",
          "type": "uint256"
        }
      ],
      "stateMutability": "view",
      "type": "function"
    },
    {
      "inputs": [
        {
          "internalType": "address",
          "name": "to",
          "type": "address"
        },
        {
          "internalType": "uint256",
          "name": "value",
          "type": "uint256"
        }
      ],
      "name": "transfer",
      "outputs": [
        {
          "internalType": "bool",
          "name": "",
          "type": "bool"
        }
      ],
      "stateMutability": "nonpayable",
      "type": "function"
    },
    {
      "inputs": [
        {
          "internalType": "address",
          "name": "from",
          "type": "address"
        },
        {
          "internalType": "address",
          "name": "to",
          "type": "address"
        },
        {
          "internalType": "uint256",
          "name": "value",
          "type": "uint256"
        }
      ],
      "name": "transferFrom",
      "outputs": [
        {
          "internalType": "bool",
          "name": "",
          "type": "bool"
        }
      ],
      "stateMutability": "nonpayable",
      "type": "function"
    }
  ],
  "bytecode": "0x608060405234801561001057600080fd5b506040518060400160405280600c81526020017f57574552433230544f4b454e00000000000000000000000000000000000000008152506040518060400160405280600381526020017f5757420000000000000000000000000000000000000000000000000000000000815250816003908161008c91906105b3565b50806004908161009c91906105b3565b5050506100b1336103e86100b660201b60201c565b6107a5565b600073ffffffffffffffffffffffffffffffffffffffff168273ffffffffffffffffffffffffffffffffffffffff16036101285760006040517fec442f0500000000000000000000000000000000000000000000000000000000815260040161011f91906106c6565b60405180910390fd5b61013a6000838361013e60201b60201c565b5050565b600073ffffffffffffffffffffffffffffffffffffffff168373ffffffffffffffffffffffffffffffffffffffff16036101905780600260008282546101849190610710565b92505081905550610263565b60008060008573ffffffffffffffffffffffffffffffffffffffff1673ffffffffffffffffffffffffffffffffffffffff1681526020019081526020016000205490508181101561021c578381836040517fe450d38c00000000000000000000000000000000000000000000000000000000815260040161021393929190610753565b60405180910390fd5b8181036000808673ffffffffffffffffffffffffffffffffffffffff1673ffffffffffffffffffffffffffffffffffffffff16815260200190815260200160002081905550505b600073ffffffffffffffffffffffffffffffffffffffff168273ffffffffffffffffffffffffffffffffffffffff16036102ac57806002600082825403925050819055506102f9565b806000808473ffffffffffffffffffffffffffffffffffffffff1673ffffffffffffffffffffffffffffffffffffffff168152602001908152602001600020600082825401925050819055505b8173ffffffffffffffffffffffffffffffffffffffff168373ffffffffffffffffffffffffffffffffffffffff167fddf252ad1be2c89b69c2b068fc378daa952ba7f163c4a11628f55a4df523b3ef83604051610356919061078a565b60405180910390a3505050565b600081519050919050565b7f4e487b7100000000000000000000000000000000000000000000000000000000600052604160045260246000fd5b7f4e487b7100000000000000000000000000000000000000000000000000000000600052602260045260246000fd5b600060028204905060018216806103e457607f821691505b6020821081036103f7576103f661039d565b5b50919050565b60008190508160005260206000209050919050565b60006020601f8301049050919050565b600082821b905092915050565b60006008830261045f7fffffffffffffffffffffffffffffffffffffffffffffffffffffffffffffffff82610422565b6104698683610422565b95508019841693508086168417925050509392505050565b6000819050919050565b6000819050919050565b60006104b06104ab6104a684610481565b61048b565b610481565b9050919050565b6000819050919050565b6104ca83610495565b6104de6104d6826104b7565b84845461042f565b825550505050565b600090565b6104f36104e6565b6104fe8184846104c1565b505050565b5b81811015610522576105176000826104eb565b600181019050610504565b5050565b601f82111561056757610538816103fd565b61054184610412565b81016020851015610550578190505b61056461055c85610412565b830182610503565b50505b505050565b600082821c905092915050565b600061058a6000198460080261056c565b1980831691505092915050565b60006105a38383610579565b9150826002028217905092915050565b6105bc82610363565b67ffffffffffffffff8111156105d5576105d461036e565b5b6105df82546103cc565b6105ea828285610526565b600060209050601f83116001811461061d576000841561060b578287015190505b6106158582610597565b86555061067d565b601f19841661062b866103fd565b60005b828110156106535784890151825560018201915060208501945060208101905061062e565b86831015610670578489015161066c601f891682610579565b8355505b6001600288020188555050505b505050505050565b600073ffffffffffffffffffffffffffffffffffffffff82169050919050565b60006106b082610685565b9050919050565b6106c0816106a5565b82525050565b60006020820190506106db60008301846106b7565b92915050565b7f4e487b7100000000000000000000000000000000000000000000000000000000600052601160045260246000fd5b600061071b82610481565b915061072683610481565b925082820190508082111561073e5761073d6106e1565b5b92915050565b61074d81610481565b82525050565b600060608201905061076860008301866106b7565b6107756020830185610744565b6107826040830184610744565b949350505050565b600060208201905061079f6000830184610744565b92915050565b610f49806107b46000396000f3fe608060405234801561001057600080fd5b50600436106100b45760003560e01c806370a082311161007157806370a082311461019157806395d89b41146101c1578063a78df4f5146101df578063a9059cbb146101fd578063dd62ed3e1461022d578063f05bebc41461025d576100b4565b806306fdde03146100b9578063095ea7b3146100d75780630f40e3541461010757806318160ddd1461012557806323b872dd14610143578063313ce56714610173575b600080fd5b6100c161027b565b6040516100ce9190610b9d565b60405180910390f35b6100f160048036038101906100ec9190610c58565b61030d565b6040516100fe9190610cb3565b60405180910390f35b61010f610330565b60405161011c9190610cdd565b60405180910390f35b61012d610336565b60405161013a9190610cdd565b60405180910390f35b61015d60048036038101906101589190610cf8565b610340565b60405161016a9190610cb3565b60405180910390f35b61017b61036f565b6040516101889190610d67565b60405180910390f35b6101ab60048036038101906101a69190610d82565b610378565b6040516101b89190610cdd565b60405180910390f35b6101c96103c0565b6040516101d69190610b9d565b60405180910390f35b6101e7610452565b6040516101f49190610b9d565b60405180910390f35b61021760048036038101906102129190610c58565b61048b565b6040516102249190610cb3565b60405180910390f35b61024760048036038101906102429190610daf565b6104ae565b6040516102549190610cdd565b60405180910390f35b610265610535565b6040516102729190610b9d565b60405180910390f35b60606003805461028a90610e1e565b80601f01602080910402602001604051908101604052809291908181526020018280546102b690610e1e565b80156103035780601f106102d857610100808354040283529160200191610303565b820191906000526020600020905b8154815290600101906020018083116102e657829003601f168201915b5050505050905090565b60008061031861056e565b9050610325818585610576565b600191505092915050565b6103e881565b6000600254905090565b60008061034b61056e565b9050610358858285610588565b61036385858561061d565b60019150509392505050565b60006012905090565b60008060008373ffffffffffffffffffffffffffffffffffffffff1673ffffffffffffffffffffffffffffffffffffffff168152602001908152602001600020549050919050565b6060600480546103cf90610e1e565b80601f01602080910402602001604051908101604052809291908181526020018280546103fb90610e1e565b80156104485780601f1061041d57610100808354040283529160200191610448565b820191906000526020600020905b81548152906001019060200180831161042b57829003601f168201915b5050505050905090565b6040518060400160405280600381526020017f575742000000000000000000000000000000000000000000000000000000000081525081565b60008061049661056e565b90506104a381858561061d565b600191505092915050565b6000600160008473ffffffffffffffffffffffffffffffffffffffff1673ffffffffffffffffffffffffffffffffffffffff16815260200190815260200160002060008373ffffffffffffffffffffffffffffffffffffffff1673ffffffffffffffffffffffffffffffffffffffff16815260200190815260200160002054905092915050565b6040518060400160405280600c81526020017f57574552433230544f4b454e000000000000000000000000000000000000000081525081565b600033905090565b6105838383836001610711565b505050565b600061059484846104ae565b90507fffffffffffffffffffffffffffffffffffffffffffffffffffffffffffffffff8110156106175781811015610607578281836040517ffb8f41b20000000000000000000000000000000000000000000000000000000081526004016105fe93929190610e5e565b60405180910390fd5b61061684848484036000610711565b5b50505050565b600073ffffffffffffffffffffffffffffffffffffffff168373ffffffffffffffffffffffffffffffffffffffff160361068f5760006040517f96c6fd1e0000000000000000000000000000000000000000000000000000000081526004016106869190610e95565b60405180910390fd5b600073ffffffffffffffffffffffffffffffffffffffff168273ffffffffffffffffffffffffffffffffffffffff16036107015760006040517fec442f050000000000000000000000000000000000000000000000000000000081526004016106f89190610e95565b60405180910390fd5b61070c8383836108e8565b505050565b600073ffffffffffffffffffffffffffffffffffffffff168473ffffffffffffffffffffffffffffffffffffffff16036107835760006040517fe602df0500000000000000000000000000000000000000000000000000000000815260040161077a9190610e95565b60405180910390fd5b600073ffffffffffffffffffffffffffffffffffffffff168373ffffffffffffffffffffffffffffffffffffffff16036107f55760006040517f94280d620000000000000000000000000000000000000000000000000000000081526004016107ec9190610e95565b60405180910390fd5b81600160008673ffffffffffffffffffffffffffffffffffffffff1673ffffffffffffffffffffffffffffffffffffffff16815260200190815260200160002060008573ffffffffffffffffffffffffffffffffffffffff1673ffffffffffffffffffffffffffffffffffffffff1681526020019081526020016000208190555080156108e2578273ffffffffffffffffffffffffffffffffffffffff168473ffffffffffffffffffffffffffffffffffffffff167f8c5be1e5ebec7d5bd14f71427d1e84f3dd0314c0f7b2291e5b200ac8c7c3b925846040516108d99190610cdd565b60405180910390a35b50505050565b600073ffffffffffffffffffffffffffffffffffffffff168373ffffffffffffffffffffffffffffffffffffffff160361093a57806002600082825461092e9190610edf565b92505081905550610a0d565b60008060008573ffffffffffffffffffffffffffffffffffffffff1673ffffffffffffffffffffffffffffffffffffffff168152602001908152602001600020549050818110156109c6578381836040517fe450d38c0000000000000000000000000000000000000000000000000000000081526004016109bd93929190610e5e565b60405180910390fd5b8181036000808673ffffffffffffffffffffffffffffffffffffffff1673ffffffffffffffffffffffffffffffffffffffff16815260200190815260200160002081905550505b600073ffffffffffffffffffffffffffffffffffffffff168273ffffffffffffffffffffffffffffffffffffffff1603610a565780600260008282540392505081905550610aa3565b806000808473ffffffffffffffffffffffffffffffffffffffff1673ffffffffffffffffffffffffffffffffffffffff168152602001908152602001600020600082825401925050819055505b8173ffffffffffffffffffffffffffffffffffffffff168373ffffffffffffffffffffffffffffffffffffffff167fddf252ad1be2c89b69c2b068fc378daa952ba7f163c4a11628f55a4df523b3ef83604051610b009190610cdd565b60405180910390a3505050565b600081519050919050565b600082825260208201905092915050565b60005b83811015610b47578082015181840152602081019050610b2c565b60008484015250505050565b6000601f19601f8301169050919050565b6000610b6f82610b0d565b610b798185610b18565b9350610b89818560208601610b29565b610b9281610b53565b840191505092915050565b60006020820190508181036000830152610bb78184610b64565b905092915050565b600080fd5b600073ffffffffffffffffffffffffffffffffffffffff82169050919050565b6000610bef82610bc4565b9050919050565b610bff81610be4565b8114610c0a57600080fd5b50565b600081359050610c1c81610bf6565b92915050565b6000819050919050565b610c3581610c22565b8114610c4057600080fd5b50565b600081359050610c5281610c2c565b92915050565b60008060408385031215610c6f57610c6e610bbf565b5b6000610c7d85828601610c0d565b9250506020610c8e85828601610c43565b9150509250929050565b60008115159050919050565b610cad81610c98565b82525050565b6000602082019050610cc86000830184610ca4565b92915050565b610cd781610c22565b82525050565b6000602082019050610cf26000830184610cce565b92915050565b600080600060608486031215610d1157610d10610bbf565b5b6000610d1f86828701610c0d565b9350506020610d3086828701610c0d565b9250506040610d4186828701610c43565b9150509250925092565b600060ff82169050919050565b610d6181610d4b565b82525050565b6000602082019050610d7c6000830184610d58565b92915050565b600060208284031215610d9857610d97610bbf565b5b6000610da684828501610c0d565b91505092915050565b60008060408385031215610dc657610dc5610bbf565b5b6000610dd485828601610c0d565b9250506020610de585828601610c0d565b9150509250929050565b7f4e487b7100000000000000000000000000000000000000000000000000000000600052602260045260246000fd5b60006002820490506001821680610e3657607f821691505b602082108103610e4957610e48610def565b5b50919050565b610e5881610be4565b82525050565b6000606082019050610e736000830186610e4f565b610e806020830185610cce565b610e8d6040830184610cce565b949350505050565b6000602082019050610eaa6000830184610e4f565b92915050565b7f4e487b7100000000000000000000000000000000000000000000000000000000600052601160045260246000fd5b6000610eea82610c22565b9150610ef583610c22565b9250828201905080821115610f0d57610f0c610eb0565b5b9291505056fea2646970667358221220d29676ac44c5eed1c0e2f13236c895095b128ee155df6bc09694c9b09a0c717c64736f6c634300081c0033",
  "linkReferences": {},
  "deployedLinkReferences": {}
}