{
  "_format": "hh-sol-artifact-1",
  "contractName": "RedPacket",
  "sourceName": "contracts/RedPacket.sol",
  "abi": [
    {
      "anonymous": false,
      "inputs": [
        {
          "indexed": true,
          "internalType": "bytes32",
          "name": "packetId",
          "type": "bytes32"
        },
        {
          "indexed": true,
          "internalType": "address",
          "name": "claimer",
          "type": "address"
        },
        {
          "indexed": false,
          "internalType": "uint256",
          "name": "amount",
          "type": "uint256"
        }
      ],
      "name": "PacketClaimed",
      "type": "event"
    },
    {
      "anonymous": false,
      "inputs": [
        {
          "indexed": true,
          "internalType": "bytes32",
          "name": "packetId",
          "type": "bytes32"
        },
        {
          "indexed": true,
          "internalType": "address",
          "name": "creator",
          "type": "address"
        },
        {
          "indexed": false,
          "internalType": "uint256",
          "name": "totalAmount",
          "type": "uint256"
        },
        {
          "indexed": false,
          "internalType": "uint256",
          "name": "totalCount",
          "type": "uint256"
        }
      ],
      "name": "PacketCreated",
      "type": "event"
    },
    {
      "anonymous": false,
      "inputs": [
        {
          "indexed": true,
          "internalType": "bytes32",
          "name": "packetId",
          "type": "bytes32"
        },
        {
          "indexed": true,
          "internalType": "address",
          "name": "settler",
          "type": "address"
        },
        {
          "indexed": false,
          "internalType": "uint256",
          "name": "refundAmount",
          "type": "uint256"
        }
      ],
      "name": "PacketSettled",
      "type": "event"
    },
    {
      "inputs": [
        {
          "internalType": "bytes32",
          "name": "packetId",
          "type": "bytes32"
        }
      ],
      "name": "calculateClaimAmount",
      "outputs": [
        {
          "internalType": "uint256",
          "name": "",
          "type": "uint256"
        }
      ],
      "stateMutability": "view",
      "type": "function"
    },
    {
      "inputs": [
        {
          "internalType": "bytes32",
          "name": "packetId",
          "type": "bytes32"
        }
      ],
      "name": "claim",
      "outputs": [],
      "stateMutability": "nonpayable",
      "type": "function"
    },
    {
      "inputs": [
        {
          "internalType": "uint256",
          "name": "totalCount",
          "type": "uint256"
        }
      ],
      "name": "createPacket",
      "outputs": [
        {
          "internalType": "bytes32",
          "name": "",
          "type": "bytes32"
        }
      ],
      "stateMutability": "payable",
      "type": "function"
    },
    {
      "inputs": [],
      "name": "getAllPacketIds",
      "outputs": [
        {
          "internalType": "bytes32[]",
          "name": "",
          "type": "bytes32[]"
        }
      ],
      "stateMutability": "view",
      "type": "function"
    },
    {
      "inputs": [
        {
          "internalType": "bytes32",
          "name": "packetId",
          "type": "bytes32"
        }
      ],
      "name": "getPacketInfo",
      "outputs": [
        {
          "internalType": "address",
          "name": "creator",
          "type": "address"
        },
        {
          "internalType": "uint256",
          "name": "totalAmount",
          "type": "uint256"
        },
        {
          "internalType": "uint256",
          "name": "totalCount",
          "type": "uint256"
        },
        {
          "internalType": "uint256",
          "name": "claimedCount",
          "type": "uint256"
        },
        {
          "internalType": "uint256",
          "name": "remainingAmount",
          "type": "uint256"
        },
        {
          "internalType": "bool",
          "name": "isActive",
          "type": "bool"
        }
      ],
      "stateMutability": "view",
      "type": "function"
    },
    {
      "inputs": [
        {
          "internalType": "bytes32",
          "name": "packetId",
          "type": "bytes32"
        },
        {
          "internalType": "address",
          "name": "user",
          "type": "address"
        }
      ],
      "name": "hasClaimed",
      "outputs": [
        {
          "internalType": "bool",
          "name": "",
          "type": "bool"
        }
      ],
      "stateMutability": "view",
      "type": "function"
    },
    {
      "inputs": [
        {
          "internalType": "uint256",
          "name": "",
          "type": "uint256"
        }
      ],
      "name": "packetIds",
      "outputs": [
        {
          "internalType": "bytes32",
          "name": "",
          "type": "bytes32"
        }
      ],
      "stateMutability": "view",
      "type": "function"
    },
    {
      "inputs": [
        {
          "internalType": "bytes32",
          "name": "",
          "type": "bytes32"
        }
      ],
      "name": "packets",
      "outputs": [
        {
          "internalType": "address",
          "name": "creator",
          "type": "address"
        },
        {
          "internalType": "uint256",
          "name": "totalAmount",
          "type": "uint256"
        },
        {
          "internalType": "uint256",
          "name": "totalCount",
          "type": "uint256"
        },
        {
          "internalType": "uint256",
          "name": "claimedCount",
          "type": "uint256"
        },
        {
          "internalType": "uint256",
          "name": "remainingAmount",
          "type": "uint256"
        },
        {
          "internalType": "bool",
          "name": "isActive",
          "type": "bool"
        }
      ],
      "stateMutability": "view",
      "type": "function"
    },
    {
      "inputs": [
        {
          "internalType": "bytes32",
          "name": "packetId",
          "type": "bytes32"
        }
      ],
      "name": "settlePacket",
      "outputs": [],
      "stateMutability": "nonpayable",
      "type": "function"
    }
  ],
  "bytecode": "0x6080604052348015600f57600080fd5b5061174a8061001f6000396000f3fe6080604052600436106100865760003560e01c806392a42d1d1161005957806392a42d1d14610177578063bd66528a146101b4578063d3a7f4ea146101dd578063e41675e114610206578063f8d1a8801461023657610086565b8063214514371461008b5780636bfa205e146100c85780637d8b4e0c146100f357806380099a0a14610135575b600080fd5b34801561009757600080fd5b506100b260048036038101906100ad9190610dca565b610273565b6040516100bf9190610e10565b60405180910390f35b3480156100d457600080fd5b506100dd610297565b6040516100ea9190610ee9565b60405180910390f35b3480156100ff57600080fd5b5061011a60048036038101906101159190610f37565b6102ef565b60405161012c96959493929190610fcf565b60405180910390f35b34801561014157600080fd5b5061015c60048036038101906101579190610f37565b610358565b60405161016e96959493929190610fcf565b60405180910390f35b34801561018357600080fd5b5061019e6004803603810190610199919061105c565b6103d8565b6040516101ab919061109c565b60405180910390f35b3480156101c057600080fd5b506101db60048036038101906101d69190610f37565b610442565b005b3480156101e957600080fd5b5061020460048036038101906101ff9190610f37565b6107cf565b005b610220600480360381019061021b9190610dca565b610a87565b60405161022d9190610e10565b60405180910390f35b34801561024257600080fd5b5061025d60048036038101906102589190610f37565b610c52565b60405161026a91906110b7565b60405180910390f35b6001818154811061028357600080fd5b906000526020600020016000915090505481565b606060018054806020026020016040519081016040528092919081815260200182805480156102e557602002820191906000526020600020905b8154815260200190600101908083116102d1575b5050505050905090565b60006020528060005260406000206000915090508060000160009054906101000a900473ffffffffffffffffffffffffffffffffffffffff16908060010154908060020154908060030154908060040154908060050160009054906101000a900460ff16905086565b600080600080600080600080600089815260200190815260200160002090508060000160009054906101000a900473ffffffffffffffffffffffffffffffffffffffff1681600101548260020154836003015484600401548560050160009054906101000a900460ff169650965096509650965096505091939550919395565b600080600084815260200190815260200160002060060160008373ffffffffffffffffffffffffffffffffffffffff1673ffffffffffffffffffffffffffffffffffffffff16815260200190815260200160002060009054906101000a900460ff16905092915050565b80600073ffffffffffffffffffffffffffffffffffffffff1660008083815260200190815260200160002060000160009054906101000a900473ffffffffffffffffffffffffffffffffffffffff1673ffffffffffffffffffffffffffffffffffffffff16036104e7576040517f08c379a00000000000000000000000000000000000000000000000000000000081526004016104de9061112f565b60405180910390fd5b600080600084815260200190815260200160002090508060050160009054906101000a900460ff1661054e576040517f08c379a00000000000000000000000000000000000000000000000000000000081526004016105459061119b565b60405180910390fd5b8060060160003373ffffffffffffffffffffffffffffffffffffffff1673ffffffffffffffffffffffffffffffffffffffff16815260200190815260200160002060009054906101000a900460ff16156105dd576040517f08c379a00000000000000000000000000000000000000000000000000000000081526004016105d490611207565b60405180910390fd5b8060020154816003015410610627576040517f08c379a000000000000000000000000000000000000000000000000000000000815260040161061e90611273565b60405180910390fd5b600061063284610c52565b905060008111610677576040517f08c379a000000000000000000000000000000000000000000000000000000000815260040161066e906112df565b60405180910390fd5b60018260060160003373ffffffffffffffffffffffffffffffffffffffff1673ffffffffffffffffffffffffffffffffffffffff16815260200190815260200160002060006101000a81548160ff0219169083151502179055508160030160008154809291906106e69061132e565b9190505550808260040160008282546106ff9190611376565b925050819055503373ffffffffffffffffffffffffffffffffffffffff166108fc829081150290604051600060405180830381858888f1935050505015801561074c573d6000803e3d6000fd5b503373ffffffffffffffffffffffffffffffffffffffff16847f45aa73da9ee0126edc74e857cce52437c33a17a3dd7c37d6231700aa832ff9e18360405161079491906110b7565b60405180910390a381600201548260030154036107c95760008260050160006101000a81548160ff0219169083151502179055505b50505050565b80600073ffffffffffffffffffffffffffffffffffffffff1660008083815260200190815260200160002060000160009054906101000a900473ffffffffffffffffffffffffffffffffffffffff1673ffffffffffffffffffffffffffffffffffffffff1603610874576040517f08c379a000000000000000000000000000000000000000000000000000000000815260040161086b9061112f565b60405180910390fd5b600080600084815260200190815260200160002090508060050160009054906101000a900460ff166108db576040517f08c379a00000000000000000000000000000000000000000000000000000000081526004016108d2906113f6565b60405180910390fd5b620151806108e884610d77565b6108f29190611416565b42118061094e57508060000160009054906101000a900473ffffffffffffffffffffffffffffffffffffffff1673ffffffffffffffffffffffffffffffffffffffff163373ffffffffffffffffffffffffffffffffffffffff16145b61098d576040517f08c379a0000000000000000000000000000000000000000000000000000000008152600401610984906114bc565b60405180910390fd5b60008160040154905060008260050160006101000a81548160ff021916908315150217905550600082600401819055506000811115610a32578160000160009054906101000a900473ffffffffffffffffffffffffffffffffffffffff1673ffffffffffffffffffffffffffffffffffffffff166108fc829081150290604051600060405180830381858888f19350505050158015610a30573d6000803e3d6000fd5b505b3373ffffffffffffffffffffffffffffffffffffffff16847f204d259093e61ad1bd55622afd89906436fe573d70f15f2bbf6004dff436594183604051610a7991906110b7565b60405180910390a350505050565b6000803411610acb576040517f08c379a0000000000000000000000000000000000000000000000000000000008152600401610ac290611528565b60405180910390fd5b60008211610b0e576040517f08c379a0000000000000000000000000000000000000000000000000000000008152600401610b0590611594565b60405180910390fd5b6000334234604051602001610b259392919061161d565b60405160208183030381529060405280519060200120905060008060008381526020019081526020016000209050338160000160006101000a81548173ffffffffffffffffffffffffffffffffffffffff021916908373ffffffffffffffffffffffffffffffffffffffff16021790555034816001018190555083816002018190555034816004018190555060018160050160006101000a81548160ff02191690831515021790555060018290806001815401808255809150506001900390600052602060002001600090919091909150553373ffffffffffffffffffffffffffffffffffffffff16827f4816255bb67a047ac3ee7f5be9f8dd35c9b554f28899bab56a67a909960c5ce03487604051610c4092919061165a565b60405180910390a38192505050919050565b600081600073ffffffffffffffffffffffffffffffffffffffff1660008083815260200190815260200160002060000160009054906101000a900473ffffffffffffffffffffffffffffffffffffffff1673ffffffffffffffffffffffffffffffffffffffff1603610cf9576040517f08c379a0000000000000000000000000000000000000000000000000000000008152600401610cf09061112f565b60405180910390fd5b600080600085815260200190815260200160002090508060050160009054906101000a900460ff161580610d3557508060020154816003015410155b15610d44576000925050610d71565b600081600301548260020154610d5a9190611376565b9050808260040154610d6c91906116b2565b935050505b50919050565b6000428260001c610d8891906116e3565b9050919050565b600080fd5b6000819050919050565b610da781610d94565b8114610db257600080fd5b50565b600081359050610dc481610d9e565b92915050565b600060208284031215610de057610ddf610d8f565b5b6000610dee84828501610db5565b91505092915050565b6000819050919050565b610e0a81610df7565b82525050565b6000602082019050610e256000830184610e01565b92915050565b600081519050919050565b600082825260208201905092915050565b6000819050602082019050919050565b610e6081610df7565b82525050565b6000610e728383610e57565b60208301905092915050565b6000602082019050919050565b6000610e9682610e2b565b610ea08185610e36565b9350610eab83610e47565b8060005b83811015610edc578151610ec38882610e66565b9750610ece83610e7e565b925050600181019050610eaf565b5085935050505092915050565b60006020820190508181036000830152610f038184610e8b565b905092915050565b610f1481610df7565b8114610f1f57600080fd5b50565b600081359050610f3181610f0b565b92915050565b600060208284031215610f4d57610f4c610d8f565b5b6000610f5b84828501610f22565b91505092915050565b600073ffffffffffffffffffffffffffffffffffffffff82169050919050565b6000610f8f82610f64565b9050919050565b610f9f81610f84565b82525050565b610fae81610d94565b82525050565b60008115159050919050565b610fc981610fb4565b82525050565b600060c082019050610fe46000830189610f96565b610ff16020830188610fa5565b610ffe6040830187610fa5565b61100b6060830186610fa5565b6110186080830185610fa5565b61102560a0830184610fc0565b979650505050505050565b61103981610f84565b811461104457600080fd5b50565b60008135905061105681611030565b92915050565b6000806040838503121561107357611072610d8f565b5b600061108185828601610f22565b925050602061109285828601611047565b9150509250929050565b60006020820190506110b16000830184610fc0565b92915050565b60006020820190506110cc6000830184610fa5565b92915050565b600082825260208201905092915050565b7f5061636b657420646f6573206e6f742065786973740000000000000000000000600082015250565b60006111196015836110d2565b9150611124826110e3565b602082019050919050565b600060208201905081810360008301526111488161110c565b9050919050565b7f5061636b6574206973206e6f7420616374697665000000000000000000000000600082015250565b60006111856014836110d2565b91506111908261114f565b602082019050919050565b600060208201905081810360008301526111b481611178565b9050919050565b7f416c726561647920636c61696d65640000000000000000000000000000000000600082015250565b60006111f1600f836110d2565b91506111fc826111bb565b602082019050919050565b60006020820190508181036000830152611220816111e4565b9050919050565b7f416c6c207061636b65747320636c61696d656400000000000000000000000000600082015250565b600061125d6013836110d2565b915061126882611227565b602082019050919050565b6000602082019050818103600083015261128c81611250565b9050919050565b7f4e6f20616d6f756e7420746f20636c61696d0000000000000000000000000000600082015250565b60006112c96012836110d2565b91506112d482611293565b602082019050919050565b600060208201905081810360008301526112f8816112bc565b9050919050565b7f4e487b7100000000000000000000000000000000000000000000000000000000600052601160045260246000fd5b600061133982610d94565b91507fffffffffffffffffffffffffffffffffffffffffffffffffffffffffffffffff820361136b5761136a6112ff565b5b600182019050919050565b600061138182610d94565b915061138c83610d94565b92508282039050818111156113a4576113a36112ff565b5b92915050565b7f5061636b657420616c726561647920736574746c656400000000000000000000600082015250565b60006113e06016836110d2565b91506113eb826113aa565b602082019050919050565b6000602082019050818103600083015261140f816113d3565b9050919050565b600061142182610d94565b915061142c83610d94565b9250828201905080821115611444576114436112ff565b5b92915050565b7f4f6e6c792063726561746f722063616e20736574746c65206265666f7265203260008201527f3468000000000000000000000000000000000000000000000000000000000000602082015250565b60006114a66022836110d2565b91506114b18261144a565b604082019050919050565b600060208201905081810360008301526114d581611499565b9050919050565b7f4d7573742073656e642045544800000000000000000000000000000000000000600082015250565b6000611512600d836110d2565b915061151d826114dc565b602082019050919050565b6000602082019050818103600083015261154181611505565b9050919050565b7f4174206c65617374206f6e6520726564207061636b6574000000000000000000600082015250565b600061157e6017836110d2565b915061158982611548565b602082019050919050565b600060208201905081810360008301526115ad81611571565b9050919050565b60008160601b9050919050565b60006115cc826115b4565b9050919050565b60006115de826115c1565b9050919050565b6115f66115f182610f84565b6115d3565b82525050565b6000819050919050565b61161761161282610d94565b6115fc565b82525050565b600061162982866115e5565b6014820191506116398285611606565b6020820191506116498284611606565b602082019150819050949350505050565b600060408201905061166f6000830185610fa5565b61167c6020830184610fa5565b9392505050565b7f4e487b7100000000000000000000000000000000000000000000000000000000600052601260045260246000fd5b60006116bd82610d94565b91506116c883610d94565b9250826116d8576116d7611683565b5b828204905092915050565b60006116ee82610d94565b91506116f983610d94565b92508261170957611708611683565b5b82820690509291505056fea264697066735822122000ff3bdba81e942bf6b8c86fdb487bc95d3fd266f64f250454eeb2f5972c51b764736f6c634300081c0033",
  "linkReferences": {},
  "deployedLinkReferences": {}
}