{
  "_format": "hh-sol-artifact-1",
  "contractName": "SimpleStorage",
  "sourceName": "contracts/SimpleStore.sol",
  "abi": [
    {
      "inputs": [],
      "stateMutability": "nonpayable",
      "type": "constructor"
    },
    {
      "anonymous": false,
      "inputs": [
        {
          "indexed": true,
          "internalType": "address",
          "name": "user",
          "type": "address"
        },
        {
          "indexed": true,
          "internalType": "uint256",
          "name": "value",
          "type": "uint256"
        },
        {
          "indexed": false,
          "internalType": "uint256",
          "name": "timestamp",
          "type": "uint256"
        }
      ],
      "name": "DataRetrieved",
      "type": "event"
    },
    {
      "anonymous": false,
      "inputs": [
        {
          "indexed": true,
          "internalType": "address",
          "name": "user",
          "type": "address"
        },
        {
          "indexed": true,
          "internalType": "uint256",
          "name": "oldValue",
          "type": "uint256"
        },
        {
          "indexed": true,
          "internalType": "uint256",
          "name": "newValue",
          "type": "uint256"
        },
        {
          "indexed": false,
          "internalType": "uint256",
          "name": "timestamp",
          "type": "uint256"
        }
      ],
      "name": "DataStored",
      "type": "event"
    },
    {
      "inputs": [],
      "name": "get",
      "outputs": [
        {
          "internalType": "uint256",
          "name": "",
          "type": "uint256"
        }
      ],
      "stateMutability": "view",
      "type": "function"
    },
    {
      "inputs": [],
      "name": "getContractInfo",
      "outputs": [
        {
          "internalType": "address",
          "name": "",
          "type": "address"
        },
        {
          "internalType": "uint256",
          "name": "",
          "type": "uint256"
        },
        {
          "internalType": "uint256",
          "name": "",
          "type": "uint256"
        }
      ],
      "stateMutability": "view",
      "type": "function"
    },
    {
      "inputs": [],
      "name": "owner",
      "outputs": [
        {
          "internalType": "address",
          "name": "",
          "type": "address"
        }
      ],
      "stateMutability": "view",
      "type": "function"
    },
    {
      "inputs": [],
      "name": "retrieve",
      "outputs": [
        {
          "internalType": "uint256",
          "name": "",
          "type": "uint256"
        }
      ],
      "stateMutability": "nonpayable",
      "type": "function"
    },
    {
      "inputs": [
        {
          "internalType": "uint256",
          "name": "_data",
          "type": "uint256"
        }
      ],
      "name": "store",
      "outputs": [],
      "stateMutability": "nonpayable",
      "type": "function"
    }
  ],
  "bytecode": "0x6080604052348015600f57600080fd5b5033600160006101000a81548173ffffffffffffffffffffffffffffffffffffffff021916908373ffffffffffffffffffffffffffffffffffffffff1602179055506000808190555061036e806100676000396000f3fe608060405234801561001057600080fd5b50600436106100575760003560e01c80632e64cec11461005c5780636057361d1461007a5780636d4ce63c146100965780637cc1f867146100b45780638da5cb5b146100d4575b600080fd5b6100646100f2565b604051610071919061022c565b60405180910390f35b610094600480360381019061008f9190610278565b61014c565b005b61009e6101ad565b6040516100ab919061022c565b60405180910390f35b6100bc6101b6565b6040516100cb939291906102e6565b60405180910390f35b6100dc6101ed565b6040516100e9919061031d565b60405180910390f35b600080543373ffffffffffffffffffffffffffffffffffffffff167f1e5b3b3554661c6e7c50174959ded9de6d8d3d573d3627b46733e5312a5863824260405161013c919061022c565b60405180910390a3600054905090565b6000805490508160008190555081813373ffffffffffffffffffffffffffffffffffffffff167f64c12c3d8342f687b557c6dee041bfbecdc57502fe073eee15615e1e3b934e1c426040516101a1919061022c565b60405180910390a45050565b60008054905090565b6000806000600160009054906101000a900473ffffffffffffffffffffffffffffffffffffffff1660005442925092509250909192565b600160009054906101000a900473ffffffffffffffffffffffffffffffffffffffff1681565b6000819050919050565b61022681610213565b82525050565b6000602082019050610241600083018461021d565b92915050565b600080fd5b61025581610213565b811461026057600080fd5b50565b6000813590506102728161024c565b92915050565b60006020828403121561028e5761028d610247565b5b600061029c84828501610263565b91505092915050565b600073ffffffffffffffffffffffffffffffffffffffff82169050919050565b60006102d0826102a5565b9050919050565b6102e0816102c5565b82525050565b60006060820190506102fb60008301866102d7565b610308602083018561021d565b610315604083018461021d565b949350505050565b600060208201905061033260008301846102d7565b9291505056fea26469706673582212208bce28216206a8bb41af35dcdf364e413146b8ece3e9dbb2b64c2d6ab8fd761d64736f6c634300081c0033",
  "linkReferences": {},
  "deployedLinkReferences": {}
}