{
  "_format": "hh-sol-artifact-1",
  "contractName": "Web3University",
  "sourceName": "contracts/Web3College1.sol",
  "abi": [
    {
      "inputs": [],
      "stateMutability": "nonpayable",
      "type": "constructor"
    },
    {
      "inputs": [
        {
          "internalType": "address",
          "name": "owner",
          "type": "address"
        }
      ],
      "name": "OwnableInvalidOwner",
      "type": "error"
    },
    {
      "inputs": [
        {
          "internalType": "address",
          "name": "account",
          "type": "address"
        }
      ],
      "name": "OwnableUnauthorizedAccount",
      "type": "error"
    },
    {
      "anonymous": false,
      "inputs": [
        {
          "indexed": true,
          "internalType": "uint256",
          "name": "courseId",
          "type": "uint256"
        },
        {
          "indexed": true,
          "internalType": "address",
          "name": "author",
          "type": "address"
        },
        {
          "indexed": false,
          "internalType": "uint256",
          "name": "price",
          "type": "uint256"
        }
      ],
      "name": "CourseCreated",
      "type": "event"
    },
    {
      "anonymous": false,
      "inputs": [
        {
          "indexed": true,
          "internalType": "uint256",
          "name": "courseId",
          "type": "uint256"
        }
      ],
      "name": "CourseDeactivated",
      "type": "event"
    },
    {
      "anonymous": false,
      "inputs": [
        {
          "indexed": true,
          "internalType": "uint256",
          "name": "courseId",
          "type": "uint256"
        },
        {
          "indexed": true,
          "internalType": "address",
          "name": "buyer",
          "type": "address"
        },
        {
          "indexed": false,
          "internalType": "uint256",
          "name": "price",
          "type": "uint256"
        }
      ],
      "name": "CoursePurchased",
      "type": "event"
    },
    {
      "anonymous": false,
      "inputs": [
        {
          "indexed": true,
          "internalType": "address",
          "name": "newDDToken",
          "type": "address"
        }
      ],
      "name": "DDTokenUpdated",
      "type": "event"
    },
    {
      "anonymous": false,
      "inputs": [
        {
          "indexed": true,
          "internalType": "address",
          "name": "previousOwner",
          "type": "address"
        },
        {
          "indexed": true,
          "internalType": "address",
          "name": "newOwner",
          "type": "address"
        }
      ],
      "name": "OwnershipTransferred",
      "type": "event"
    },
    {
      "anonymous": false,
      "inputs": [
        {
          "indexed": true,
          "internalType": "address",
          "name": "to",
          "type": "address"
        },
        {
          "indexed": false,
          "internalType": "uint256",
          "name": "amount",
          "type": "uint256"
        }
      ],
      "name": "TokensWithdrawn",
      "type": "event"
    },
    {
      "inputs": [],
      "name": "PLATFORM_FEE_PERCENT",
      "outputs": [
        {
          "internalType": "uint256",
          "name": "",
          "type": "uint256"
        }
      ],
      "stateMutability": "view",
      "type": "function"
    },
    {
      "inputs": [
        {
          "internalType": "uint256",
          "name": "",
          "type": "uint256"
        },
        {
          "internalType": "uint256",
          "name": "",
          "type": "uint256"
        }
      ],
      "name": "coursePurchases",
      "outputs": [
        {
          "internalType": "uint256",
          "name": "courseId",
          "type": "uint256"
        },
        {
          "internalType": "address",
          "name": "buyer",
          "type": "address"
        },
        {
          "internalType": "uint256",
          "name": "purchasedAt",
          "type": "uint256"
        },
        {
          "internalType": "bool",
          "name": "refunded",
          "type": "bool"
        }
      ],
      "stateMutability": "view",
      "type": "function"
    },
    {
      "inputs": [
        {
          "internalType": "uint256",
          "name": "",
          "type": "uint256"
        }
      ],
      "name": "courses",
      "outputs": [
        {
          "internalType": "uint256",
          "name": "id",
          "type": "uint256"
        },
        {
          "internalType": "address",
          "name": "author",
          "type": "address"
        },
        {
          "internalType": "uint256",
          "name": "price",
          "type": "uint256"
        },
        {
          "internalType": "bool",
          "name": "active",
          "type": "bool"
        },
        {
          "internalType": "uint256",
          "name": "purchaseCount",
          "type": "uint256"
        },
        {
          "internalType": "uint256",
          "name": "createdAt",
          "type": "uint256"
        }
      ],
      "stateMutability": "view",
      "type": "function"
    },
    {
      "inputs": [
        {
          "internalType": "address",
          "name": "_author",
          "type": "address"
        },
        {
          "internalType": "uint256",
          "name": "_price",
          "type": "uint256"
        }
      ],
      "name": "createCourse",
      "outputs": [
        {
          "internalType": "uint256",
          "name": "",
          "type": "uint256"
        }
      ],
      "stateMutability": "nonpayable",
      "type": "function"
    },
    {
      "inputs": [],
      "name": "ddToken",
      "outputs": [
        {
          "internalType": "contract IERC20",
          "name": "",
          "type": "address"
        }
      ],
      "stateMutability": "view",
      "type": "function"
    },
    {
      "inputs": [
        {
          "internalType": "uint256",
          "name": "_courseId",
          "type": "uint256"
        }
      ],
      "name": "deactivateCourse",
      "outputs": [],
      "stateMutability": "nonpayable",
      "type": "function"
    },
    {
      "inputs": [],
      "name": "emergencyWithdraw",
      "outputs": [],
      "stateMutability": "nonpayable",
      "type": "function"
    },
    {
      "inputs": [],
      "name": "getActiveCourses",
      "outputs": [
        {
          "components": [
            {
              "internalType": "uint256",
              "name": "id",
              "type": "uint256"
            },
            {
              "internalType": "address",
              "name": "author",
              "type": "address"
            },
            {
              "internalType": "uint256",
              "name": "price",
              "type": "uint256"
            },
            {
              "internalType": "bool",
              "name": "active",
              "type": "bool"
            },
            {
              "internalType": "uint256",
              "name": "purchaseCount",
              "type": "uint256"
            },
            {
              "internalType": "uint256",
              "name": "createdAt",
              "type": "uint256"
            }
          ],
          "internalType": "struct Web3University.Course[]",
          "name": "",
          "type": "tuple[]"
        }
      ],
      "stateMutability": "view",
      "type": "function"
    },
    {
      "inputs": [
        {
          "internalType": "uint256",
          "name": "_courseId",
          "type": "uint256"
        }
      ],
      "name": "getCourse",
      "outputs": [
        {
          "components": [
            {
              "internalType": "uint256",
              "name": "id",
              "type": "uint256"
            },
            {
              "internalType": "address",
              "name": "author",
              "type": "address"
            },
            {
              "internalType": "uint256",
              "name": "price",
              "type": "uint256"
            },
            {
              "internalType": "bool",
              "name": "active",
              "type": "bool"
            },
            {
              "internalType": "uint256",
              "name": "purchaseCount",
              "type": "uint256"
            },
            {
              "internalType": "uint256",
              "name": "createdAt",
              "type": "uint256"
            }
          ],
          "internalType": "struct Web3University.Course",
          "name": "",
          "type": "tuple"
        }
      ],
      "stateMutability": "view",
      "type": "function"
    },
    {
      "inputs": [
        {
          "internalType": "uint256",
          "name": "_courseId",
          "type": "uint256"
        }
      ],
      "name": "getCoursePurchases",
      "outputs": [
        {
          "components": [
            {
              "internalType": "uint256",
              "name": "courseId",
              "type": "uint256"
            },
            {
              "internalType": "address",
              "name": "buyer",
              "type": "address"
            },
            {
              "internalType": "uint256",
              "name": "purchasedAt",
              "type": "uint256"
            },
            {
              "internalType": "bool",
              "name": "refunded",
              "type": "bool"
            }
          ],
          "internalType": "struct Web3University.Purchase[]",
          "name": "",
          "type": "tuple[]"
        }
      ],
      "stateMutability": "view",
      "type": "function"
    },
    {
      "inputs": [],
      "name": "getDDTokenAddress",
      "outputs": [
        {
          "internalType": "address",
          "name": "",
          "type": "address"
        }
      ],
      "stateMutability": "view",
      "type": "function"
    },
    {
      "inputs": [
        {
          "internalType": "address",
          "name": "_user",
          "type": "address"
        }
      ],
      "name": "getUserPurchases",
      "outputs": [
        {
          "internalType": "uint256[]",
          "name": "",
          "type": "uint256[]"
        }
      ],
      "stateMutability": "view",
      "type": "function"
    },
    {
      "inputs": [
        {
          "internalType": "uint256",
          "name": "",
          "type": "uint256"
        },
        {
          "internalType": "address",
          "name": "",
          "type": "address"
        }
      ],
      "name": "hasPurchased",
      "outputs": [
        {
          "internalType": "bool",
          "name": "",
          "type": "bool"
        }
      ],
      "stateMutability": "view",
      "type": "function"
    },
    {
      "inputs": [
        {
          "internalType": "uint256",
          "name": "_courseId",
          "type": "uint256"
        },
        {
          "internalType": "address",
          "name": "_user",
          "type": "address"
        }
      ],
      "name": "hasUserPurchased",
      "outputs": [
        {
          "internalType": "bool",
          "name": "",
          "type": "bool"
        }
      ],
      "stateMutability": "view",
      "type": "function"
    },
    {
      "inputs": [],
      "name": "owner",
      "outputs": [
        {
          "internalType": "address",
          "name": "",
          "type": "address"
        }
      ],
      "stateMutability": "view",
      "type": "function"
    },
    {
      "inputs": [
        {
          "internalType": "uint256",
          "name": "_courseId",
          "type": "uint256"
        }
      ],
      "name": "purchaseCourse",
      "outputs": [],
      "stateMutability": "nonpayable",
      "type": "function"
    },
    {
      "inputs": [],
      "name": "renounceOwnership",
      "outputs": [],
      "stateMutability": "nonpayable",
      "type": "function"
    },
    {
      "inputs": [],
      "name": "totalCourses",
      "outputs": [
        {
          "internalType": "uint256",
          "name": "",
          "type": "uint256"
        }
      ],
      "stateMutability": "view",
      "type": "function"
    },
    {
      "inputs": [
        {
          "internalType": "address",
          "name": "newOwner",
          "type": "address"
        }
      ],
      "name": "transferOwnership",
      "outputs": [],
      "stateMutability": "nonpayable",
      "type": "function"
    },
    {
      "inputs": [
        {
          "internalType": "address",
          "name": "_newDDToken",
          "type": "address"
        }
      ],
      "name": "updateDDToken",
      "outputs": [],
      "stateMutability": "nonpayable",
      "type": "function"
    },
    {
      "inputs": [
        {
          "internalType": "address",
          "name": "",
          "type": "address"
        },
        {
          "internalType": "uint256",
          "name": "",
          "type": "uint256"
        }
      ],
      "name": "userPurchases",
      "outputs": [
        {
          "internalType": "uint256",
          "name": "",
          "type": "uint256"
        }
      ],
      "stateMutability": "view",
      "type": "function"
    },
    {
      "inputs": [
        {
          "internalType": "uint256",
          "name": "_courseId",
          "type": "uint256"
        }
      ],
      "name": "withdrawAuthorEarnings",
      "outputs": [],
      "stateMutability": "nonpayable",
      "type": "function"
    },
    {
      "inputs": [],
      "name": "withdrawPlatformFees",
      "outputs": [],
      "stateMutability": "nonpayable",
      "type": "function"
    }
  ],
  "bytecode": "0x608060405234801561001057600080fd5b5033600073ffffffffffffffffffffffffffffffffffffffff168173ffffffffffffffffffffffffffffffffffffffff16036100845760006040517f1e4fbdf700000000000000000000000000000000000000000000000000000000815260040161007b919061019e565b60405180910390fd5b6100938161009960201b60201c565b506101b9565b60008060009054906101000a900473ffffffffffffffffffffffffffffffffffffffff169050816000806101000a81548173ffffffffffffffffffffffffffffffffffffffff021916908373ffffffffffffffffffffffffffffffffffffffff1602179055508173ffffffffffffffffffffffffffffffffffffffff168173ffffffffffffffffffffffffffffffffffffffff167f8be0079c531659141344cd1fd0a4f28419497f9722a3daafe3b4186f6b6457e060405160405180910390a35050565b600073ffffffffffffffffffffffffffffffffffffffff82169050919050565b60006101888261015d565b9050919050565b6101988161017d565b82525050565b60006020820190506101b3600083018461018f565b92915050565b6131ad806101c86000396000f3fe608060405234801561001057600080fd5b506004361061014d5760003560e01c806387ac1860116100c3578063cd1319381161007c578063cd131938146103bc578063cf2c0334146103d8578063d0b7830b14610408578063db2e21bc14610412578063dc9da2f81461041c578063f2fde38b1461044c5761014d565b806387ac1860146102e15780638da5cb5b146102ff57806396f979d21461031d578063ac85495d14610352578063b5d2e6d81461036e578063c6e5d8f61461038c5761014d565b80634b11e664116101155780634b11e6641461022e578063560d52d41461024a57806358716cc514610268578063693284b414610286578063715018a6146102b95780637f9fe514146102c35761014d565b8063028f557814610152578063049d244a146101825780630b91e28d146101b257806319ce19e2146101e2578063433ec97814610212575b600080fd5b61016c600480360381019061016791906121e8565b610468565b6040516101799190612243565b60405180910390f35b61019c6004803603810190610197919061225e565b6104d0565b6040516101a991906122ad565b60405180910390f35b6101cc60048036038101906101c791906122c8565b610781565b6040516101d9919061239d565b60405180910390f35b6101fc60048036038101906101f791906122c8565b610898565b60405161020991906124bc565b60405180910390f35b61022c600480360381019061022791906122c8565b6109e0565b005b610248600480360381019061024391906124de565b610d43565b005b610252610e41565b60405161025f91906122ad565b60405180910390f35b610270610e46565b60405161027d9190612635565b60405180910390f35b6102a0600480360381019061029b9190612657565b611038565b6040516102b094939291906126a6565b60405180910390f35b6102c16110b2565b005b6102cb6110c6565b6040516102d891906126eb565b60405180910390f35b6102e96110f0565b6040516102f691906122ad565b60405180910390f35b6103076110f6565b60405161031491906126eb565b60405180910390f35b610337600480360381019061033291906122c8565b61111f565b60405161034996959493929190612706565b60405180910390f35b61036c600480360381019061036791906122c8565b611188565b005b610376611319565b60405161038391906127c6565b60405180910390f35b6103a660048036038101906103a191906124de565b61133f565b6040516103b39190612890565b60405180910390f35b6103d660048036038101906103d191906122c8565b6113d6565b005b6103f260048036038101906103ed919061225e565b6119e2565b6040516103ff91906122ad565b60405180910390f35b610410611a13565b005b61041a611ccd565b005b610436600480360381019061043191906121e8565b611ef9565b6040516104439190612243565b60405180910390f35b610466600480360381019061046191906124de565b611f28565b005b60006003600084815260200190815260200160002060008373ffffffffffffffffffffffffffffffffffffffff1673ffffffffffffffffffffffffffffffffffffffff16815260200190815260200160002060009054906101000a900460ff16905092915050565b60006104da611fae565b600073ffffffffffffffffffffffffffffffffffffffff16600160009054906101000a900473ffffffffffffffffffffffffffffffffffffffff1673ffffffffffffffffffffffffffffffffffffffff160361056b576040517f08c379a00000000000000000000000000000000000000000000000000000000081526004016105629061290f565b60405180910390fd5b600073ffffffffffffffffffffffffffffffffffffffff168373ffffffffffffffffffffffffffffffffffffffff16036105da576040517f08c379a00000000000000000000000000000000000000000000000000000000081526004016105d19061297b565b60405180910390fd5b6000821161061d576040517f08c379a0000000000000000000000000000000000000000000000000000000008152600401610614906129e7565b60405180910390fd5b6006600081548092919061063090612a36565b91905055506040518060c0016040528060065481526020018473ffffffffffffffffffffffffffffffffffffffff16815260200183815260200160011515815260200160008152602001428152506002600060065481526020019081526020016000206000820151816000015560208201518160010160006101000a81548173ffffffffffffffffffffffffffffffffffffffff021916908373ffffffffffffffffffffffffffffffffffffffff1602179055506040820151816002015560608201518160030160006101000a81548160ff0219169083151502179055506080820151816004015560a082015181600501559050508273ffffffffffffffffffffffffffffffffffffffff166006547fd5752151d5fdb631899f5c4c065a24fd8ab111096f119c44b3539965c4de0cd48460405161076e91906122ad565b60405180910390a3600654905092915050565b610789612101565b60008211801561079b57506006548211155b6107da576040517f08c379a00000000000000000000000000000000000000000000000000000000081526004016107d190612aca565b60405180910390fd5b600260008381526020019081526020016000206040518060c0016040529081600082015481526020016001820160009054906101000a900473ffffffffffffffffffffffffffffffffffffffff1673ffffffffffffffffffffffffffffffffffffffff1673ffffffffffffffffffffffffffffffffffffffff168152602001600282015481526020016003820160009054906101000a900460ff16151515158152602001600482015481526020016005820154815250509050919050565b60606000821180156108ac57506006548211155b6108eb576040517f08c379a00000000000000000000000000000000000000000000000000000000081526004016108e290612aca565b60405180910390fd5b60056000838152602001908152602001600020805480602002602001604051908101604052809291908181526020016000905b828210156109d55783829060005260206000209060040201604051806080016040529081600082015481526020016001820160009054906101000a900473ffffffffffffffffffffffffffffffffffffffff1673ffffffffffffffffffffffffffffffffffffffff1673ffffffffffffffffffffffffffffffffffffffff168152602001600282015481526020016003820160009054906101000a900460ff1615151515815250508152602001906001019061091e565b505050509050919050565b600073ffffffffffffffffffffffffffffffffffffffff16600160009054906101000a900473ffffffffffffffffffffffffffffffffffffffff1673ffffffffffffffffffffffffffffffffffffffff1603610a71576040517f08c379a0000000000000000000000000000000000000000000000000000000008152600401610a689061290f565b60405180910390fd5b600081118015610a8357506006548111155b610ac2576040517f08c379a0000000000000000000000000000000000000000000000000000000008152600401610ab990612aca565b60405180910390fd5b3373ffffffffffffffffffffffffffffffffffffffff166002600083815260200190815260200160002060010160009054906101000a900473ffffffffffffffffffffffffffffffffffffffff1673ffffffffffffffffffffffffffffffffffffffff1614610b66576040517f08c379a0000000000000000000000000000000000000000000000000000000008152600401610b5d90612b36565b60405180910390fd5b6000600260008381526020019081526020016000209050600081600401548260020154610b939190612b56565b905060006064600583610ba69190612b56565b610bb09190612bc7565b905060008183610bc09190612bf8565b905060008111610c05576040517f08c379a0000000000000000000000000000000000000000000000000000000008152600401610bfc90612c78565b60405180910390fd5b60008460040181905550600160009054906101000a900473ffffffffffffffffffffffffffffffffffffffff1673ffffffffffffffffffffffffffffffffffffffff1663a9059cbb33836040518363ffffffff1660e01b8152600401610c6c929190612c98565b6020604051808303816000875af1158015610c8b573d6000803e3d6000fd5b505050506040513d601f19601f82011682018060405250810190610caf9190612ced565b610cee576040517f08c379a0000000000000000000000000000000000000000000000000000000008152600401610ce590612d66565b60405180910390fd5b3373ffffffffffffffffffffffffffffffffffffffff167f6352c5382c4a4578e712449ca65e83cdb392d045dfcf1cad9615189db2da244b82604051610d3491906122ad565b60405180910390a25050505050565b610d4b611fae565b600073ffffffffffffffffffffffffffffffffffffffff168173ffffffffffffffffffffffffffffffffffffffff1603610dba576040517f08c379a0000000000000000000000000000000000000000000000000000000008152600401610db190612dd2565b60405180910390fd5b80600160006101000a81548173ffffffffffffffffffffffffffffffffffffffff021916908373ffffffffffffffffffffffffffffffffffffffff1602179055508073ffffffffffffffffffffffffffffffffffffffff167fcbe503b7883adeb08c6757dae2cb91cbcc6a29ddc28d6914fdf9480c9f8ea51460405160405180910390a250565b600581565b6060600080600190505b6006548111610ea4576002600082815260200190815260200160002060030160009054906101000a900460ff1615610e91578180610e8d90612a36565b9250505b8080610e9c90612a36565b915050610e50565b5060008167ffffffffffffffff811115610ec157610ec0612df2565b5b604051908082528060200260200182016040528015610efa57816020015b610ee7612101565b815260200190600190039081610edf5790505b509050600080600190505b600654811161102e576002600082815260200190815260200160002060030160009054906101000a900460ff161561101b57600260008281526020019081526020016000206040518060c0016040529081600082015481526020016001820160009054906101000a900473ffffffffffffffffffffffffffffffffffffffff1673ffffffffffffffffffffffffffffffffffffffff1673ffffffffffffffffffffffffffffffffffffffff168152602001600282015481526020016003820160009054906101000a900460ff161515151581526020016004820154815260200160058201548152505083838151811061100157611000612e21565b5b6020026020010181905250818061101790612a36565b9250505b808061102690612a36565b915050610f05565b5081935050505090565b6005602052816000526040600020818154811061105457600080fd5b9060005260206000209060040201600091509150508060000154908060010160009054906101000a900473ffffffffffffffffffffffffffffffffffffffff16908060020154908060030160009054906101000a900460ff16905084565b6110ba611fae565b6110c46000612035565b565b6000600160009054906101000a900473ffffffffffffffffffffffffffffffffffffffff16905090565b60065481565b60008060009054906101000a900473ffffffffffffffffffffffffffffffffffffffff16905090565b60026020528060005260406000206000915090508060000154908060010160009054906101000a900473ffffffffffffffffffffffffffffffffffffffff16908060020154908060030160009054906101000a900460ff16908060040154908060050154905086565b60008111801561119a57506006548111155b6111d9576040517f08c379a00000000000000000000000000000000000000000000000000000000081526004016111d090612aca565b60405180910390fd5b6111e16110f6565b73ffffffffffffffffffffffffffffffffffffffff163373ffffffffffffffffffffffffffffffffffffffff16148061127b57506002600082815260200190815260200160002060010160009054906101000a900473ffffffffffffffffffffffffffffffffffffffff1673ffffffffffffffffffffffffffffffffffffffff163373ffffffffffffffffffffffffffffffffffffffff16145b6112ba576040517f08c379a00000000000000000000000000000000000000000000000000000000081526004016112b190612ec2565b60405180910390fd5b60006002600083815260200190815260200160002060030160006101000a81548160ff021916908315150217905550807f85a406c134e004f27c0b2cd0d0d951d7235374623df2bc40752d06597463a83f60405160405180910390a250565b600160009054906101000a900473ffffffffffffffffffffffffffffffffffffffff1681565b6060600460008373ffffffffffffffffffffffffffffffffffffffff1673ffffffffffffffffffffffffffffffffffffffff1681526020019081526020016000208054806020026020016040519081016040528092919081815260200182805480156113ca57602002820191906000526020600020905b8154815260200190600101908083116113b6575b50505050509050919050565b806000811180156113e957506006548111155b611428576040517f08c379a000000000000000000000000000000000000000000000000000000000815260040161141f90612aca565b60405180910390fd5b6002600082815260200190815260200160002060030160009054906101000a900460ff1661148b576040517f08c379a000000000000000000000000000000000000000000000000000000000815260040161148290612f2e565b60405180910390fd5b600073ffffffffffffffffffffffffffffffffffffffff16600160009054906101000a900473ffffffffffffffffffffffffffffffffffffffff1673ffffffffffffffffffffffffffffffffffffffff160361151c576040517f08c379a00000000000000000000000000000000000000000000000000000000081526004016115139061290f565b60405180910390fd5b6003600083815260200190815260200160002060003373ffffffffffffffffffffffffffffffffffffffff1673ffffffffffffffffffffffffffffffffffffffff16815260200190815260200160002060009054906101000a900460ff16156115ba576040517f08c379a00000000000000000000000000000000000000000000000000000000081526004016115b190612f9a565b60405180910390fd5b600060026000848152602001908152602001600020905060008160020154905080600160009054906101000a900473ffffffffffffffffffffffffffffffffffffffff1673ffffffffffffffffffffffffffffffffffffffff166370a08231336040518263ffffffff1660e01b815260040161163691906126eb565b602060405180830381865afa158015611653573d6000803e3d6000fd5b505050506040513d601f19601f820116820180604052508101906116779190612fcf565b10156116b8576040517f08c379a00000000000000000000000000000000000000000000000000000000081526004016116af90613048565b60405180910390fd5b600160009054906101000a900473ffffffffffffffffffffffffffffffffffffffff1673ffffffffffffffffffffffffffffffffffffffff166323b872dd3330846040518463ffffffff1660e01b815260040161171793929190613068565b6020604051808303816000875af1158015611736573d6000803e3d6000fd5b505050506040513d601f19601f8201168201806040525081019061175a9190612ced565b611799576040517f08c379a0000000000000000000000000000000000000000000000000000000008152600401611790906130eb565b60405180910390fd5b60016003600086815260200190815260200160002060003373ffffffffffffffffffffffffffffffffffffffff1673ffffffffffffffffffffffffffffffffffffffff16815260200190815260200160002060006101000a81548160ff021916908315150217905550600460003373ffffffffffffffffffffffffffffffffffffffff1673ffffffffffffffffffffffffffffffffffffffff168152602001908152602001600020849080600181540180825580915050600190039060005260206000200160009091909190915055600060405180608001604052808681526020013373ffffffffffffffffffffffffffffffffffffffff168152602001428152602001600015158152509050600560008681526020019081526020016000208190806001815401808255809150506001900390600052602060002090600402016000909190919091506000820151816000015560208201518160010160006101000a81548173ffffffffffffffffffffffffffffffffffffffff021916908373ffffffffffffffffffffffffffffffffffffffff1602179055506040820151816002015560608201518160030160006101000a81548160ff021916908315150217905550505060026000868152602001908152602001600020600401600081548092919061198790612a36565b91905055503373ffffffffffffffffffffffffffffffffffffffff16857f6d846848ed199e5a5cc3af1d2846d9e5aa7d59c948360982923973138cbc241b846040516119d391906122ad565b60405180910390a35050505050565b600460205281600052604060002081815481106119fe57600080fd5b90600052602060002001600091509150505481565b611a1b611fae565b600073ffffffffffffffffffffffffffffffffffffffff16600160009054906101000a900473ffffffffffffffffffffffffffffffffffffffff1673ffffffffffffffffffffffffffffffffffffffff1603611aac576040517f08c379a0000000000000000000000000000000000000000000000000000000008152600401611aa39061290f565b60405180910390fd5b6000600160009054906101000a900473ffffffffffffffffffffffffffffffffffffffff1673ffffffffffffffffffffffffffffffffffffffff166370a08231306040518263ffffffff1660e01b8152600401611b0991906126eb565b602060405180830381865afa158015611b26573d6000803e3d6000fd5b505050506040513d601f19601f82011682018060405250810190611b4a9190612fcf565b905060008111611b8f576040517f08c379a0000000000000000000000000000000000000000000000000000000008152600401611b8690613157565b60405180910390fd5b600160009054906101000a900473ffffffffffffffffffffffffffffffffffffffff1673ffffffffffffffffffffffffffffffffffffffff1663a9059cbb611bd56110f6565b836040518363ffffffff1660e01b8152600401611bf3929190612c98565b6020604051808303816000875af1158015611c12573d6000803e3d6000fd5b505050506040513d601f19601f82011682018060405250810190611c369190612ced565b611c75576040517f08c379a0000000000000000000000000000000000000000000000000000000008152600401611c6c90612d66565b60405180910390fd5b611c7d6110f6565b73ffffffffffffffffffffffffffffffffffffffff167f6352c5382c4a4578e712449ca65e83cdb392d045dfcf1cad9615189db2da244b82604051611cc291906122ad565b60405180910390a250565b611cd5611fae565b600073ffffffffffffffffffffffffffffffffffffffff16600160009054906101000a900473ffffffffffffffffffffffffffffffffffffffff1673ffffffffffffffffffffffffffffffffffffffff1603611d66576040517f08c379a0000000000000000000000000000000000000000000000000000000008152600401611d5d9061290f565b60405180910390fd5b6000600160009054906101000a900473ffffffffffffffffffffffffffffffffffffffff1673ffffffffffffffffffffffffffffffffffffffff166370a08231306040518263ffffffff1660e01b8152600401611dc391906126eb565b602060405180830381865afa158015611de0573d6000803e3d6000fd5b505050506040513d601f19601f82011682018060405250810190611e049190612fcf565b90506000811115611ef657600160009054906101000a900473ffffffffffffffffffffffffffffffffffffffff1673ffffffffffffffffffffffffffffffffffffffff1663a9059cbb611e556110f6565b836040518363ffffffff1660e01b8152600401611e73929190612c98565b6020604051808303816000875af1158015611e92573d6000803e3d6000fd5b505050506040513d601f19601f82011682018060405250810190611eb69190612ced565b611ef5576040517f08c379a0000000000000000000000000000000000000000000000000000000008152600401611eec90612d66565b60405180910390fd5b5b50565b60036020528160005260406000206020528060005260406000206000915091509054906101000a900460ff1681565b611f30611fae565b600073ffffffffffffffffffffffffffffffffffffffff168173ffffffffffffffffffffffffffffffffffffffff1603611fa25760006040517f1e4fbdf7000000000000000000000000000000000000000000000000000000008152600401611f9991906126eb565b60405180910390fd5b611fab81612035565b50565b611fb66120f9565b73ffffffffffffffffffffffffffffffffffffffff16611fd46110f6565b73ffffffffffffffffffffffffffffffffffffffff161461203357611ff76120f9565b6040517f118cdaa700000000000000000000000000000000000000000000000000000000815260040161202a91906126eb565b60405180910390fd5b565b60008060009054906101000a900473ffffffffffffffffffffffffffffffffffffffff169050816000806101000a81548173ffffffffffffffffffffffffffffffffffffffff021916908373ffffffffffffffffffffffffffffffffffffffff1602179055508173ffffffffffffffffffffffffffffffffffffffff168173ffffffffffffffffffffffffffffffffffffffff167f8be0079c531659141344cd1fd0a4f28419497f9722a3daafe3b4186f6b6457e060405160405180910390a35050565b600033905090565b6040518060c0016040528060008152602001600073ffffffffffffffffffffffffffffffffffffffff1681526020016000815260200160001515815260200160008152602001600081525090565b600080fd5b6000819050919050565b61216781612154565b811461217257600080fd5b50565b6000813590506121848161215e565b92915050565b600073ffffffffffffffffffffffffffffffffffffffff82169050919050565b60006121b58261218a565b9050919050565b6121c5816121aa565b81146121d057600080fd5b50565b6000813590506121e2816121bc565b92915050565b600080604083850312156121ff576121fe61214f565b5b600061220d85828601612175565b925050602061221e858286016121d3565b9150509250929050565b60008115159050919050565b61223d81612228565b82525050565b60006020820190506122586000830184612234565b92915050565b600080604083850312156122755761227461214f565b5b6000612283858286016121d3565b925050602061229485828601612175565b9150509250929050565b6122a781612154565b82525050565b60006020820190506122c2600083018461229e565b92915050565b6000602082840312156122de576122dd61214f565b5b60006122ec84828501612175565b91505092915050565b6122fe81612154565b82525050565b61230d816121aa565b82525050565b61231c81612228565b82525050565b60c08201600082015161233860008501826122f5565b50602082015161234b6020850182612304565b50604082015161235e60408501826122f5565b5060608201516123716060850182612313565b50608082015161238460808501826122f5565b5060a082015161239760a08501826122f5565b50505050565b600060c0820190506123b26000830184612322565b92915050565b600081519050919050565b600082825260208201905092915050565b6000819050602082019050919050565b6080820160008201516123fa60008501826122f5565b50602082015161240d6020850182612304565b50604082015161242060408501826122f5565b5060608201516124336060850182612313565b50505050565b600061244583836123e4565b60808301905092915050565b6000602082019050919050565b6000612469826123b8565b61247381856123c3565b935061247e836123d4565b8060005b838110156124af5781516124968882612439565b97506124a183612451565b925050600181019050612482565b5085935050505092915050565b600060208201905081810360008301526124d6818461245e565b905092915050565b6000602082840312156124f4576124f361214f565b5b6000612502848285016121d3565b91505092915050565b600081519050919050565b600082825260208201905092915050565b6000819050602082019050919050565b60c08201600082015161254d60008501826122f5565b5060208201516125606020850182612304565b50604082015161257360408501826122f5565b5060608201516125866060850182612313565b50608082015161259960808501826122f5565b5060a08201516125ac60a08501826122f5565b50505050565b60006125be8383612537565b60c08301905092915050565b6000602082019050919050565b60006125e28261250b565b6125ec8185612516565b93506125f783612527565b8060005b8381101561262857815161260f88826125b2565b975061261a836125ca565b9250506001810190506125fb565b5085935050505092915050565b6000602082019050818103600083015261264f81846125d7565b905092915050565b6000806040838503121561266e5761266d61214f565b5b600061267c85828601612175565b925050602061268d85828601612175565b9150509250929050565b6126a0816121aa565b82525050565b60006080820190506126bb600083018761229e565b6126c86020830186612697565b6126d5604083018561229e565b6126e26060830184612234565b95945050505050565b60006020820190506127006000830184612697565b92915050565b600060c08201905061271b600083018961229e565b6127286020830188612697565b612735604083018761229e565b6127426060830186612234565b61274f608083018561229e565b61275c60a083018461229e565b979650505050505050565b6000819050919050565b600061278c6127876127828461218a565b612767565b61218a565b9050919050565b600061279e82612771565b9050919050565b60006127b082612793565b9050919050565b6127c0816127a5565b82525050565b60006020820190506127db60008301846127b7565b92915050565b600081519050919050565b600082825260208201905092915050565b6000819050602082019050919050565b600061281983836122f5565b60208301905092915050565b6000602082019050919050565b600061283d826127e1565b61284781856127ec565b9350612852836127fd565b8060005b8381101561288357815161286a888261280d565b975061287583612825565b925050600181019050612856565b5085935050505092915050565b600060208201905081810360008301526128aa8184612832565b905092915050565b600082825260208201905092915050565b7f444420746f6b656e206e6f742073657400000000000000000000000000000000600082015250565b60006128f96010836128b2565b9150612904826128c3565b602082019050919050565b60006020820190508181036000830152612928816128ec565b9050919050565b7f496e76616c696420617574686f72206164647265737300000000000000000000600082015250565b60006129656016836128b2565b91506129708261292f565b602082019050919050565b6000602082019050818103600083015261299481612958565b9050919050565b7f5072696365206d7573742062652067726561746572207468616e203000000000600082015250565b60006129d1601c836128b2565b91506129dc8261299b565b602082019050919050565b60006020820190508181036000830152612a00816129c4565b9050919050565b7f4e487b7100000000000000000000000000000000000000000000000000000000600052601160045260246000fd5b6000612a4182612154565b91507fffffffffffffffffffffffffffffffffffffffffffffffffffffffffffffffff8203612a7357612a72612a07565b5b600182019050919050565b7f496e76616c696420636f75727365204944000000000000000000000000000000600082015250565b6000612ab46011836128b2565b9150612abf82612a7e565b602082019050919050565b60006020820190508181036000830152612ae381612aa7565b9050919050565b7f4f6e6c7920636f7572736520617574686f722063616e20776974686472617700600082015250565b6000612b20601f836128b2565b9150612b2b82612aea565b602082019050919050565b60006020820190508181036000830152612b4f81612b13565b9050919050565b6000612b6182612154565b9150612b6c83612154565b9250828202612b7a81612154565b91508282048414831517612b9157612b90612a07565b5b5092915050565b7f4e487b7100000000000000000000000000000000000000000000000000000000600052601260045260246000fd5b6000612bd282612154565b9150612bdd83612154565b925082612bed57612bec612b98565b5b828204905092915050565b6000612c0382612154565b9150612c0e83612154565b9250828203905081811115612c2657612c25612a07565b5b92915050565b7f4e6f206561726e696e677320746f207769746864726177000000000000000000600082015250565b6000612c626017836128b2565b9150612c6d82612c2c565b602082019050919050565b60006020820190508181036000830152612c9181612c55565b9050919050565b6000604082019050612cad6000830185612697565b612cba602083018461229e565b9392505050565b612cca81612228565b8114612cd557600080fd5b50565b600081519050612ce781612cc1565b92915050565b600060208284031215612d0357612d0261214f565b5b6000612d1184828501612cd8565b91505092915050565b7f5472616e73666572206661696c65640000000000000000000000000000000000600082015250565b6000612d50600f836128b2565b9150612d5b82612d1a565b602082019050919050565b60006020820190508181036000830152612d7f81612d43565b9050919050565b7f496e76616c696420746f6b656e20616464726573730000000000000000000000600082015250565b6000612dbc6015836128b2565b9150612dc782612d86565b602082019050919050565b60006020820190508181036000830152612deb81612daf565b9050919050565b7f4e487b7100000000000000000000000000000000000000000000000000000000600052604160045260246000fd5b7f4e487b7100000000000000000000000000000000000000000000000000000000600052603260045260246000fd5b7f4f6e6c79206f776e6572206f7220617574686f722063616e206465616374697660008201527f6174650000000000000000000000000000000000000000000000000000000000602082015250565b6000612eac6023836128b2565b9150612eb782612e50565b604082019050919050565b60006020820190508181036000830152612edb81612e9f565b9050919050565b7f436f75727365206973206e6f7420616374697665000000000000000000000000600082015250565b6000612f186014836128b2565b9150612f2382612ee2565b602082019050919050565b60006020820190508181036000830152612f4781612f0b565b9050919050565b7f416c726561647920707572636861736564207468697320636f75727365000000600082015250565b6000612f84601d836128b2565b9150612f8f82612f4e565b602082019050919050565b60006020820190508181036000830152612fb381612f77565b9050919050565b600081519050612fc98161215e565b92915050565b600060208284031215612fe557612fe461214f565b5b6000612ff384828501612fba565b91505092915050565b7f496e73756666696369656e7420444420746f6b656e2062616c616e6365000000600082015250565b6000613032601d836128b2565b915061303d82612ffc565b602082019050919050565b6000602082019050818103600083015261306181613025565b9050919050565b600060608201905061307d6000830186612697565b61308a6020830185612697565b613097604083018461229e565b949350505050565b7f546f6b656e207472616e73666572206661696c65640000000000000000000000600082015250565b60006130d56015836128b2565b91506130e08261309f565b602082019050919050565b60006020820190508181036000830152613104816130c8565b9050919050565b7f4e6f20746f6b656e7320746f2077697468647261770000000000000000000000600082015250565b60006131416015836128b2565b915061314c8261310b565b602082019050919050565b6000602082019050818103600083015261317081613134565b905091905056fea26469706673582212204d149c03aa75f528366aa6ac8801b8dd2009f1c678c3899614ed72d29ac9158564736f6c634300081c0033",
  "linkReferences": {},
  "deployedLinkReferences": {}
}